:020000040800F2
:10000000002800205D170008AD170008AD17000894
:10001000AD170008AD170008AD170008000000007C
:10002000000000000000000000000000AD17000804
:10003000AD17000800000000AD1700084D020008D1
:1000400041170008AD170008AD170008AD170008EC
:10005000AD170008AD170008AD170008AD17000870
:10006000AD170008AD170008AD170008B10400086F
:10007000C5040008D9040008ED04000801050008C3
:100080000D05000819050008AD170008AD17000898
:10009000AD170008AD170008AD170008AD17000830
:1000A000AD170008AD170008AD170008AD17000820
:1000B000AD170008AD170008AD170008AD17000810
:1000C000AD170008AD170008AD170008AD17000800
:1000D000AD170008AD170008AD170008AD170008F0
:1000E000AD170008AD17000800000000AD170008AC
:1000F000AD170008AD170008AD170008AD170008D0
:10010000AD170008AD170008AD170008AD170008BF
:10011000AD170008AD170008AD170008AD170008AF
:1001200025050008310500083D050008AD17000849
:1001300010B5054C237833B9044B13B10448AFF321
:1001400000800123237010BD040000200000000087
:10015000F817000808B5034B1BB103490348AFF378
:10016000008008BD0000000008000020F81700080B
:1001700080B400AF0A4B1B68094A23F001031360E7
:10018000074B1B68064A43F002031360044B1B68CD
:10019000034A43F00403136000BFBD4680BC7047B0
:1001A00010E000E080B584B000AF78601A4B1B68A7
:1001B000194A23F0010313600023FB607B68BB60D6
:1001C0004FF4FA5000F02AF8134B1B68124A23F040
:1001D00002031360104B1B680F4A43F001031360C6
:1001E00010E000BF0C4B1B681B0C03F00103002B3D
:1001F000F8D0094B1B68084A43F480331360FB684E
:100200000133FB60FA68BB689A42EAD300BF00BFC3
:100210001037BD4680BD00BF10E000E080B483B061
:1002200000AF78607B68B3F1807F04D9064B4FF054
:1002300080725A6002E0044A7B68536000BF0C374A
:10024000BD4680BC704700BF10E000E080B500AF45
:10025000094B1A68094B1B689A4205D2064B1B686A
:100260000133054A136005E0034B00221A60044B7A
:100270001B68984700BF80BD200000202800002098
:100280002400002080B485B000AF78600023FB73A9
:100290007B68002B02D10123FB739DE07B685B79B7
:1002A000002B02D0012B09D015E07B681B681A686F
:1002B0007B681B6822F010021A600CE07B681B68E8
:1002C0001A687B681B6842F010021A607B681B6822
:1002D00010221A6000BF7B681B7A002B02D0012B12
:1002E00009D011E07B681B681A687B681B6842F4C0
:1002F00080421A6008E07B681B681A687B681B688C
:1003000022F480421A6000BF7B681B79002B0ED05C
:10031000012B16D17B681B7A002B11D07B681B68E0
:100320001A687B681B6822F020021A6008E07B686C
:100330001B681A687B681B6842F020021A6000E0A4
:1003400000BF7B685B7A002B02D0012B09D011E043
:100350007B681B681A687B681B6842F080021A6021
:1003600008E07B681B681A687B681B6822F08002C3
:100370001A6000BF7B689B7A002B02D0012B09D04A
:1003800011E07B681B681A687B681B6842F04002BA
:100390001A6008E07B681B681A687B681B6822F09B
:1003A00040021A6000BF7B68DB7A002B02D0012B71
:1003B00009D011E07B681B681A687B681B6842F0F3
:1003C00002021A6008E07B681B681A687B681B6879
:1003D00022F002021A6000BFFB7B18461437BD46AC
:1003E00080BC704780B485B000AF7860396000236E
:1003F000FB733B68002B02D07B68002B02D10123EA
:10040000FB7303E07B681B683A689A60FB7B1846C5
:100410001437BD4680BC704780B485B000AF7860AB
:1004200039600023FB733B68002B02D07B68002BF4
:1004300002D10123FB7303E07B681B683A68DA6032
:10044000FB7B18461437BD4680BC704780B485B02E
:1004500000AF78600023FB737B68002B02D101237F
:10046000FB7307E07B681B681A687B681B6842F0B7
:1004700001021A60FB7B18461437BD4680BC7047EA
:1004800080B485B000AF786039600023FB737B686F
:10049000002B02D10123FB7303E07B681B683A68E1
:1004A0005A60FB7B18461437BD4680BC704700007D
:1004B00080B500AF024B1B68984700BF80BD00BFEE
:1004C0002C00002080B500AF024B1B68984700BF8E
:1004D00080BD00BF3800002080B500AF024B1B6814
:1004E000984700BF80BD00BF3000002080B500AF3E
:1004F000024B1B68984700BF80BD00BF3000002042
:1005000080B400AF00BFBD4680BC704780B400AF70
:1005100000BFBD4680BC704780B400AF00BFBD4681
:1005200080BC704780B400AF00BFBD4680BC704740
:1005300080B400AF00BFBD4680BC704780B400AF40
:1005400000BFBD4680BC704780B500AF504B514ADC
:100550001A604F4B00221A714D4B00225A744C4BBB
:1005600000229A714A4B0022DA71494B00225A71DB
:10057000474B02221A75464B00225A75444B002203
:100580009A75434B01221A74414B0022DA75404B95
:1005900001221A763E4B00229A743D4B0122DA74F6
:1005A0003D4B3E4A1A603C4B07221A713A4B0222DD
:1005B0005A71394B05229A71374800F091FB384B3C
:1005C000364A1A60364B05221A71354B02225A718F
:1005D000334B05229A71324800F082FB314B2F4A8F
:1005E0001A60304B03221A712E4B02225A712D4B86
:1005F00003229A712B4800F073FB2B4B274A1A6099
:10060000294B02221A71284B02225A71264B0322CF
:100610009A71254800F064FB244B204A1A60234B52
:1006200008221A71214B02225A71204B03229A711F
:100630001E4800F055FB1E4B1E4A1A601C4B01223F
:100640001A721B4B01221A71194B01225A71184B55
:1006500000229A71164B0022DA71154B00225A7251
:10066000134B01229A72124B0122DA72084B104A84
:100670009A60074B9B681846FFF704FE044800F099
:1006800089FD0021074800F04DFD00BF80BD00BF7F
:100690007400002000300140640000200008014088
:1006A0006C000020900000205C000020540000201E
:1006B000480000203000024080B582B000AF034601
:1006C000FB71FB1D01221946034800F0D3FE00BF59
:1006D0000837BD4680BD00BF7400002080B582B0E1
:1006E00000AF0346FB710021094800F01BFD00210B
:1006F000084800F017FDFB791846FFF7DDFF0121E0
:10070000034800F00FFD00BF0837BD4680BD00BFA5
:10071000900000205C00002080B582B000AF03464E
:10072000FB710021094800F0FDFC0121084800F0A0
:10073000F9FCFB791846FFF7BFFF0121034800F0E1
:10074000F1FC00BF0837BD4680BD00BF900000200F
:100750005C00002090B583B000AF04460846114607
:100760001A462346FB800346BB800B467B8013461C
:100770003B802A20FFF7B2FFFB881B0A9BB2DBB24B
:100780001846FFF7C9FFFB88DBB21846FFF7C4FF26
:100790007B881B0A9BB2DBB21846FFF7BDFF7B8844
:1007A000DBB21846FFF7B8FF2B20FFF797FFBB8897
:1007B0001B0A9BB2DBB21846FFF7AEFFBB88DBB269
:1007C0001846FFF7A9FF3B881B0A9BB2DBB218460D
:1007D000FFF7A2FF3B88DBB21846FFF79DFF2C20F6
:1007E000FFF77CFF00BF0C37BD4690BD80B500AF62
:1007F0000021094800F096FCC820FFF7D3FC002137
:10080000064800F08FFCC820FFF7CCFC012102480D
:1008100000F088FC00BF80BD540000209000002044
:1008200080B584B000AF0346FB71FB79FB733620C3
:10083000FFF754FF0120FFF7B5FCFB7B032B37D8F4
:1008400001A252F823F000BF590800086F08000801
:10085000850800089B0800084820FFF75DFF174B3C
:10086000F0221A80164B4FF4A0721A8021E0282043
:10087000FFF752FF114B4FF4A0721A80104BF02279
:100880001A8016E08820FFF747FF0C4BF0221A80F1
:100890000B4B4FF4A0721A800BE0E820FFF73CFFEF
:1008A000064B4FF4A0721A80054BF0221A8000E02C
:1008B00000BF00BF1037BD4680BD00BF0200002052
:1008C0000000002080B500AF0121024800F02AFCA2
:1008D00000BF80BD5400002080B500AFFFF734FE9C
:1008E000FFF7F0FFFFF782FF0120FFF7F7FE4FF45D
:1008F0007A70FFF757FCCB20FFF7F0FE3920FFF7A7
:100900000BFF2C20FFF708FF0020FFF705FF342026
:10091000FFF702FF0220FFF7FFFECF20FFF7DEFE0A
:100920000020FFF7F9FEC120FFF7F6FE3020FFF7A9
:10093000F3FEE820FFF7D2FE8520FFF7EDFE002052
:10094000FFF7EAFE7820FFF7E7FEEA20FFF7C6FE92
:100950000020FFF7E1FE0020FFF7DEFEED20FFF7AD
:10096000BDFE6420FFF7D8FE0320FFF7D5FE12205E
:10097000FFF7D2FE8120FFF7CFFEF720FFF7AEFE94
:100980002020FFF7C9FEC020FFF7A8FE2320FFF7B5
:10099000C3FEC120FFF7A2FE1020FFF7BDFEC52059
:1009A000FFF79CFE3E20FFF7B7FE2820FFF7B4FEBE
:1009B000C720FFF793FE8620FFF7AEFE3620FFF735
:1009C0008DFE4820FFF7A8FE3A20FFF787FE55204E
:1009D000FFF7A2FEB120FFF781FE0020FFF79CFE8B
:1009E0001820FFF799FEB620FFF778FE0820FFF7E2
:1009F00093FE8220FFF790FE2720FFF78DFEF22066
:100A0000FFF76CFE0020FFF787FE2620FFF766FE4B
:100A10000120FFF781FEE020FFF760FE0F20FFF7C7
:100A20007BFE3120FFF778FE2B20FFF775FE0C20B0
:100A3000FFF772FE0E20FFF76FFE0820FFF76CFE37
:100A40004E20FFF769FEF120FFF766FE3720FFF723
:100A500063FE0720FFF760FE1020FFF75DFE032016
:100A6000FFF75AFE0E20FFF757FE0920FFF754FE4E
:100A70000020FFF751FEE120FFF730FE0020FFF7D6
:100A80004BFE0E20FFF748FE1420FFF745FE032023
:100A9000FFF742FE1120FFF73FFE0720FFF73CFE65
:100AA0003120FFF739FEC120FFF736FE4820FFF75F
:100AB00033FE0820FFF730FE0F20FFF72DFE0C203D
:100AC000FFF72AFE3120FFF727FE3620FFF724FE2E
:100AD0000F20FFF721FE1120FFF700FE7820FFF71F
:100AE00061FB2920FFF7FAFD0020FFF799FE00BF08
:100AF00080BD0000B0B58CB000AF03463960FB800C
:100B00006B461D4600237B623B685B00B3F5FA7FB2
:100B100002D23B687B6202E04FF4FA737B620121F0
:100B20003E4800F0FFFA00213D4800F0FBFAFB8848
:100B30001B0A9BB287F823307C6A2346013BFB618A
:100B400020464FF000014FF000024FF00003CB00B1
:100B500043EA5073C20020464FF000014FF00002FC
:100B60004FF00003CB0043EA5073C200E31DDB08E3
:100B7000DB00ADEB030D6B460033BB610023BB62B2
:100B80000EE0BA69BB6A134497F823201A70BB6A57
:100B90000133FA88D1B2BA69D154BB6A0233BB625D
:100BA000BA6A7B6A9A42ECD33B685B007B617A69E4
:100BB0007B6AB2FBF3F33B617B697A6AB3FBF2F2C7
:100BC000796A01FB02F29B1AFB603B69002B12D091
:100BD0000023FB620BE0BB697A6A1946114800F0FA
:100BE00096FC0120FFF7DEFAFB6A0133FB62FA6A2A
:100BF0003B699A42EFD3BB69FA681946094800F08D
:100C000086FC0120FFF7CEFA0121054800F08AFAA0
:100C1000AD4600BF3037BD46B0BD00BF5C00002010
:100C2000900000207400002090B583B000AF04460F
:100C3000084611461A462346FB800346BB800B46F6
:100C40007B8013463B80244B1B889BB2FA889A42D8
:100C50003DD2224B1B889BB2BA889A4237D2FA887F
:100C60007B8813441C4A128892B2934205DD1A4BCA
:100C70001B889AB2FB88D31A7B80BA883B881344BE
:100C8000164A128892B2934205DD144B1B889AB221
:100C9000BB88D31A3B80FA887B8813449BB2013B04
:100CA0009CB2BA883B8813449BB2013B9BB2B98883
:100CB000F8882246FFF74EFD3B887A8802FB03F353
:100CC0001A463B8B11461846FFF714FF00E000BFA1
:100CD0000C37BD4690BD00BF020000200000002080
:100CE00080B485B000AF78600023FB737B68002B75
:100CF00002D10123FB730EE27B681B79072B00F204
:100D0000FD807B685B79032B76D801A252F823F033
:100D1000210D0008570D00088D0D0008C30D0008B7
:100D20007B681B6819687B681B799B000F2202FA9D
:100D300003F3DA437B681B680A401A607B681B6810
:100D400019687B681B799B0004229A407B681B68AA
:100D50000A431A6053E07B681B6819687B681B793B
:100D60009B000F2202FA03F3DA437B681B680A40F8
:100D70001A607B681B6819687B681B799B000122DD
:100D80009A407B681B680A431A6038E07B681B68DE
:100D900019687B681B799B000F2202FA03F3DA4380
:100DA0007B681B680A401A607B681B6819687B684F
:100DB0001B799B0002229A407B681B680A431A60D9
:100DC0001DE07B681B6819687B681B799B000F22FC
:100DD00002FA03F3DA437B681B680A401A607B68F7
:100DE0001B6819687B681B799B0003229A407B680B
:100DF0001B680A431A6002E00123FB7300BF7B6893
:100E00009B79062B77D801A252F823F0290E00080F
:100E1000490E0008830E0008290E0008490E00083C
:100E2000830E0008BD0E00087B681B6819687B688C
:100E30001B799B000233032202FA03F3DA437B6837
:100E40001B680A401A6066E17B681B6819687B684A
:100E50001B799B000233032202FA03F3DA437B6817
:100E60001B680A401A607B681B6819687B681B79DD
:100E70009B00023301229A407B681B680A431A6078
:100E800049E17B681B6819687B681B799B0002330A
:100E9000032202FA03F3DA437B681B680A401A60F4
:100EA0007B681B6819687B681B799B0002330222F0
:100EB0009A407B681B680A431A602CE17B681B68B8
:100EC00019687B681B799B000233032202FA03F343
:100ED000DA437B681B680A401A607B681B681968E4
:100EE0007B681B799B00023303229A407B681B6856
:100EF0000A431A600FE10123FB730CE17B685B7905
:100F0000032B7FD801A252F823F000BF1D0F000869
:100F1000570F0008910F0008CB0F00087B681B6873
:100F200059687B681B79083B9B000F2202FA03F388
:100F3000DA437B681B680A405A607B681B68596803
:100F40007B681B79083B9B0004229A407B681B68E6
:100F50000A435A6059E07B681B6859687B681B79B3
:100F6000083B9B000F2202FA03F3DA437B681B68FD
:100F70000A405A607B681B6859687B681B79083B8C
:100F80009B0001229A407B681B680A435A603CE040
:100F90007B681B6859687B681B79083B9B000F22A4
:100FA00002FA03F3DA437B681B680A405A607B68E5
:100FB0001B6859687B681B79083B9B0002229A409A
:100FC0007B681B680A435A601FE07B681B6859688E
:100FD0007B681B79083B9B000F2202FA03F3DA437C
:100FE0007B681B680A405A607B681B6859687B688D
:100FF0001B79083B9B0003229A407B681B680A43CD
:101000005A6002E00123FB7300BF7B689B79062BCB
:101010007ED801A252F823F03510000857100008BE
:1010200095100008351000085710000895100008AA
:10103000D31000087B681B6859687B681B79083BE4
:101040009B000233032202FA03F3DA437B681B6836
:101050000A405A605FE07B681B6859687B681B79AF
:10106000083B9B000233032202FA03F3DA437B6856
:101070001B680A405A607B681B6859687B681B794B
:10108000083B9B00023301229A407B681B680A439D
:101090005A6040E07B681B6859687B681B79083B95
:1010A0009B000233032202FA03F3DA437B681B68D6
:1010B0000A405A607B681B6859687B681B79083B4B
:1010C0009B00023302229A407B681B680A435A60E5
:1010D00021E07B681B6859687B681B79083B9B0093
:1010E0000233032202FA03F3DA437B681B680A40E7
:1010F0005A607B681B6859687B681B79083B9B00BA
:10110000023303229A407B681B680A435A6002E05C
:101110000123FB7300BFFB7B18461437BD4680BC20
:10112000704700BF80B485B000AF78600B46FB709D
:101130000023FB737B68002B02D10123FB7323E0A8
:10114000FB78002B0DD17B681B6859697B681B7984
:101150001A46012303FA02F27B681B680A435A61AC
:1011600012E0FB78012B0DD17B681B6819697B6845
:101170001B791A46012303FA02F27B681B680A43B3
:101180001A6101E00123FB73FB7B18461437BD464F
:1011900080BC704780B485B000AF78600023FB73DB
:1011A0007B68002B02D10123FB735CE17B681B7D14
:1011B000012B08D17B681B681A687B681B6822F4C6
:1011C00000721A6023E07B681B7D002B08D17B68CE
:1011D0001B681A687B681B6842F400721A6016E08C
:1011E0007B681B7D022B10D17B681B681A687B68AB
:1011F0001B6842F400721A607B681B681A687B687F
:101200001B6842F480721A6001E00123FB737B6863
:101210001B79002B08D17B681B681A687B681B68E8
:1012200042F004021A600EE07B681B79012B08D1A2
:101230007B681B681A687B681B6822F004021A60CE
:1012400001E00123FB737B685B7D012B08D17B6888
:101250001B681A687B681B6842F400421A600EE043
:101260007B685B7D002B08D17B681B681A687B68F4
:101270001B6822F400421A6001E00123FB737B68C3
:101280005B7C002B08D17B681B681A687B681B6835
:1012900022F400621A600EE07B685B7C012B08D1AF
:1012A0007B681B681A687B681B6842F400621A60DE
:1012B00001E00123FB737B689B79002B08D17B68DD
:1012C0001B681A687B681B6822F002021A600EE035
:1012D0007B689B79012B08D17B681B681A687B6847
:1012E0001B6842F002021A6001E00123FB737B6875
:1012F000DB79002B08D17B681B681A687B681B6848
:1013000022F001021A600EE07B68DB79012B08D124
:101310007B681B681A687B681B6842F001021A60D0
:1013200001E00123FB737B689B7C002B08D17B6869
:101330001B685A687B681B6842F002025A6007E02B
:101340007B681B685A687B681B6822F002025A603F
:101350007B68DB7C002B08D17B681B685A687B6844
:101360001B6842F001025A6007E07B681B685A68FC
:101370007B681B6822F001025A607B685B79072B4F
:1013800066D801A252F823F0A9130008BB13000885
:10139000D1130008E7130008FD1300081314000818
:1013A000291400083F1400087B681B681A687B68D2
:1013B0001B6822F038021A604DE07B681B681B68CE
:1013C00023F038027B681B6842F008021A6042E092
:1013D0007B681B681B6823F038027B681B6842F03F
:1013E00010021A6037E07B681B681B6823F0380224
:1013F0007B681B6842F018021A602CE07B681B684F
:101400001B6823F038027B681B6842F020021A60D8
:1014100021E07B681B681B6823F038027B681B682F
:1014200042F028021A6016E07B681B681B6823F0F4
:1014300038027B681B6842F030021A600BE07B6860
:101440001B681A687B681B6842F038021A6002E069
:101450000123FB7300BF7B681B681A687B681B68ED
:1014600042F040021A60FB7B18461437BD4680BC30
:10147000704700BF80B487B000AFF860B9607A6091
:101480000023FB75FB68002B02D0BB68002B02D148
:101490000123FB7535E000233B61FB685B7C002B7F
:1014A0002BD112E000BFFB681B689B685B0803F050
:1014B0000103002BF7D0BA683B6913441A78FB6824
:1014C0001B68DA603B6901333B613A697B689A4289
:1014D000E8D316E000BFFB681B689B685B0803F05D
:1014E0000103002BF7D0BA683B6913441A78FB68F4
:1014F0001B68DA603B6901333B613A697B689A4259
:10150000E8D3FB7D18461C37BD4680BC704780B5CC
:1015100086B000AFF860B9607A600023FB75FB68A5
:10152000002B02D10123FB7519E0FB689B68B968A9
:101530001846FEF771FFFB689A68FB681B680C335E
:1015400019461046FEF74EFFFB689B6879681846FF
:10155000FEF796FFFB689B681846FEF777FFFB7D5A
:1015600018461837BD4680BD80B584B002AF00F084
:1015700027F8FFF7B1F90623FB711F230093A0237F
:10158000802200210020FFF74FFBC820FEF70AFE53
:1015900000230093A023802200210020FFF744FBBA
:1015A000C820FEF7FFFD4FF6FF730093A0238022B3
:1015B00000210020FFF738FBC820FEF7F3FDDCE731
:1015C00080B500AFFEF7D4FD534B9B69524A43F000
:1015D00004039361504B9B694F4A43F008039361A6
:1015E0004D4B9B694C4A43F4805393614A4B5B6972
:1015F000494A43F001035361474BDB69464A43F4D0
:101600008043D361454B464A1A60444B01221A710C
:10161000424B00225A74414B00229A713F4B0022E8
:10162000DA713E4B00225A713C4B01221A753B4B3A
:1016300000225A75394B00229A75384B01221A74D0
:10164000364B0022DA75354B01221A76334B0122D4
:101650009A74324B0022DA74324B334A1A60314B9F
:101660000F221A712F4B00225A712E4B01229A71B0
:101670002C48FFF735FB2D4B2B4A1A602B4B0E22C3
:101680001A712A4B02225A71284B05229A71274857
:10169000FFF726FB264B244A1A60254B0D221A71B0
:1016A000234B00225A71224B01229A712048FFF7E6
:1016B00017FB204B1C4A1A601E4B0C221A711D4B43
:1016C00000225A711B4B01229A711A48FFF708FB3E
:1016D000194B1A4A1A60184B01221A72164B012232
:1016E0001A71154B00225A71134B00229A71124B3A
:1016F0000022DA71104B00225A720F4B01229A72AB
:101700000D4B0022DA72054B0B4ADA600348FFF7F3
:1017100041FD00BF80BD00BF00100240B4000020AA
:1017200000380040A4000020000C0140D000002040
:10173000F80000200C0100200001002044000240BD
:1017400080B400AF044BDB68034A43F00103D3606D
:1017500000BFBD4680BC7047000801400D4885466B
:10176000AFF300800C480D490D4A002302E0D45825
:10177000C4500433C4188C42F9D30A4A0A4C0023DB
:1017800001E013600432A242FBD300F011F8FFF72E
:10179000EBFEFEE7002800200000002004000020EF
:1017A000181800080400002030010020FEE70000A7
:1017B00070B500260C4D0D4C641BA410A64209D137
:1017C00000F01AF800260A4D0A4C641BA410A64229
:1017D00005D170BD55F8043B98470136EEE755F842
:1017E000043B98470136F2E710180008101800086B
:1017F0001018000814180008F8B500BFF8BC08BCA1
:101800009E467047F8B500BFF8BC08BC9E467047BE
:041810005501000876
:041814003101000896
:04181800A0008000AC
:040000050800175D7B
:00000001FF
