:020000040800F2
:100000000028002049040008990400089904000809
:1000100099040008990400089904000800000000F1
:10002000000000000000000000000000990400082B
:1000300099040008000000009904000899040008D1
:10004000F9030008990400089904000899040008BD
:10005000990400089904000899040008990400080C
:1000600099040008990400089904000899040008FC
:1000700099040008990400089904000899040008EC
:1000800099040008990400089904000899040008DC
:1000900099040008990400089904000899040008CC
:1000A00099040008990400089904000899040008BC
:1000B00099040008990400089904000899040008AC
:1000C000990400089904000899040008990400089C
:1000D000990400089904000899040008990400088C
:1000E0009904000899040008000000009904000821
:1000F000990400089904000899040008990400086C
:10010000990400089904000899040008990400085B
:10011000990400089904000899040008990400084B
:10012000990400089904000899040008990400083B
:1001300010B5054C237833B9044B13B10448AFF321
:1001400000800123237010BD080000200000000083
:10015000E404000808B5034B1BB103490348AFF39F
:10016000008008BD000000000C000020E40400082E
:1001700080B485B000AF78600023FB737B68002BF0
:1001800002D10123FB7380E07B685B79002B02D0F6
:10019000012B09D011E07B681B689A687B681B689B
:1001A00022F010029A6008E07B681B689A687B68FE
:1001B0001B6842F010029A6000BF7B681B7A002B1C
:1001C00002D0012B09D011E07B681B689A687B681C
:1001D0001B6842F480429A6008E07B681B689A685A
:1001E0007B681B6822F480429A6000BF7B681B79A1
:1001F000002B0ED0012B16D17B681B7A002B11D05F
:100200007B681B689A687B681B6822F020029A60F2
:1002100008E07B681B689A687B681B6842F02002D4
:100220009A6000E000BF7B685B7A002B02D0012B54
:1002300009D011E07B681B689A687B681B6842F0F4
:1002400080029A6008E07B681B689A687B681B687C
:1002500022F080029A6000BF7B689B7A002B02D05C
:10026000012B09D011E07B681B689A687B681B68CA
:1002700042F040029A6008E07B681B689A687B68DD
:100280001B6822F040029A6000BFFB7B18461437BF
:10029000BD4680BC704780B485B000AF78603960DF
:1002A0000023FB733B68002B02D07B68002B02D13C
:1002B0000123FB7303E07B681B683A681A61FB7BD0
:1002C00018461437BD4680BC704780B485B000AF77
:1002D000786039600023FB733B68002B02D07B6899
:1002E000002B02D10123FB7303E07B681B683A6893
:1002F0005A61FB7B18461437BD4680BC704780B4FA
:1003000085B000AF78600023FB737B68002B02D1BF
:100310000123FB7307E07B681B689A687B681B6896
:1003200042F001029A60FB7B18461437BD4680BC40
:10033000704780B485B000AF786039600023FB73EC
:100340007B68002B02D10123FB7303E07B681B68F1
:100350003A68DA60FB7B18461437BD4680BC7047AC
:1003600080B584B000AF1E4B9B691D4A43F0040367
:1003700093611C4B1B681B4A43F001031360194B2C
:100380001B68184A23F004031360174B3B600123DA
:100390007B7100233B7200237B7201233B713B4640
:1003A0001846FFF7E5FE38460223104A104900F0D0
:1003B00031F80023FB6002E0FB680133FB60FB685F
:1003C0000C4A9342F8D90A4B1A68084B1B689A42A8
:1003D00005D1044BDB68034A43F00103D360FEE719
:1003E00000100240000801400000024024000020EC
:1003F000000000203F420F0080B400AF044BDB68D8
:10040000034A43F00103D36000BFBD4680BC704780
:100410000008014080B584B000AFF860B9607A6030
:100420003B60B968F868FFF750FF7968F868FFF734
:1004300032FF3968F868FFF77CFFF868FFF75FFF65
:1004400000BF1037BD4680BD0D488546AFF3008024
:100450000C480D490D4A002302E0D458C45004331F
:10046000C4188C42F9D30A4A0A4C002301E01360F5
:100470000432A242FBD300F011F8FFF771FFFEE750
:1004800000280020000000200800002004050008CB
:10049000080000202C000020FEE7000070B50026B8
:1004A0000C4D0D4C641BA410A64209D100F01AF8A3
:1004B00000260A4D0A4C641BA410A64205D170BD4B
:1004C00055F8043B98470136EEE755F8043B98474A
:1004D0000136F2E7FC040008FC040008FC040008F4
:1004E00000050008F8B500BFF8BC08BC9E46704780
:0C04F000F8B500BFF8BC08BC9E46704781
:0404FC00550100089E
:0405000031010008BD
:080504000200000003000000EA
:0400000508000449A2
:00000001FF
