:020000040800F2
:1000000000280020C114000811150008111500086F
:100010001115000811150008111500080000000056
:1000200000000000000000000000000011150008A2
:100030001115000800000000111500084D0200080D
:10004000A514000811150008111500081115000865
:1000500011150008111500081115000811150008E8
:100060001115000811150008111500088502000877
:1000700099020008AD020008C1020008D50200087C
:10008000E1020008ED020008111500081115000832
:1000900011150008111500081115000811150008A8
:1000A0001115000811150008111500081115000898
:1000B0001115000811150008111500081115000888
:1000C0001115000811150008111500081115000878
:1000D0001115000811150008111500081115000868
:1000E0001115000811150008000000001115000886
:1000F0001115000811150008111500081115000848
:100100001115000811150008111500081115000837
:100110001115000811150008111500081115000827
:10012000F902000805030008110300081115000872
:1001300010B5054C237833B9044B13B10448AFF321
:1001400000800123237010BD040000200000000087
:100150005C15000808B5034B1BB103490348AFF316
:10016000008008BD00000000080000205C150008A9
:1001700080B400AF0A4B1B68094A23F001031360E7
:10018000074B1B68064A43F002031360044B1B68CD
:10019000034A43F00403136000BFBD4680BC7047B0
:1001A00010E000E080B584B000AF78601A4B1B68A7
:1001B000194A23F0010313600023FB607B68BB60D6
:1001C0004FF4FA5000F02AF8134B1B68124A23F040
:1001D00002031360104B1B680F4A43F001031360C6
:1001E00010E000BF0C4B1B681B0C03F00103002B3D
:1001F000F8D0094B1B68084A43F480331360FB684E
:100200000133FB60FA68BB689A42EAD300BF00BFC3
:100210001037BD4680BD00BF10E000E080B483B061
:1002200000AF78607B68B3F1807F04D9064B4FF054
:1002300080725A6002E0044A7B68536000BF0C374A
:10024000BD4680BC704700BF10E000E080B500AF45
:10025000094B1A68094B1B689A4205D2064B1B686A
:100260000133054A136005E0034B00221A60044B7A
:100270001B68984700BF80BD200000202800002098
:100280002400002080B500AF024B1B68984700BFD8
:1002900080BD00BF2C00002080B500AF024B1B6862
:1002A000984700BF80BD00BF3800002080B500AF78
:1002B000024B1B68984700BF80BD00BF3000002084
:1002C00080B500AF024B1B68984700BF80BD00BFE0
:1002D0003000002080B400AF00BFBD4680BC704736
:1002E00080B400AF00BFBD4680BC704780B400AF93
:1002F00000BFBD4680BC704780B400AF00BFBD46A4
:1003000080BC704780B400AF00BFBD4680BC704762
:1003100080B400AF00BFBD4680BC704780B500AF61
:100320003E4B3F4A1A603D4B00221A713B4B002264
:100330005A743A4B00229A71384B0022DA71374BCB
:1003400000225A71354B02221A75344B00225A751D
:10035000324B00229A75314B01221A742F4B002226
:10036000DA752E4B01221A762C4B00229A742B4BF5
:100370000122DA742B4B2C4A1A602A4B07221A717D
:10038000284B02225A71274B05229A71254800F00A
:1003900089FB264B244A1A60244B05221A71234BF1
:1003A00002225A71214B05229A71204800F07AFBF3
:1003B0001F4B1D4A1A601E4B03221A711C4B02224E
:1003C0005A711B4B03229A71194800F06BFB194BB1
:1003D000154A1A60174B02221A71164B02225A71E3
:1003E000144B03229A71134800F05CFB124B0E4A27
:1003F0001A60114B08221A710F4B02225A710E4BD0
:1004000003229A710C4800F04DFB044800F0A4FD53
:100410000021074800F068FD00BF80BD6800002093
:10042000003001405800002000080140600000201A
:1004300084000020500000204800002080B582B0D9
:1004400000AF0346FB71FB1D01221946034800F073
:10045000F3FE00BF0837BD4680BD00BF6800002026
:1004600080B582B000AF0346FB710021094800F05F
:100470003BFD0021084800F037FDFB791846FFF7E7
:10048000DDFF0121034800F02FFD00BF0837BD4606
:1004900080BD00BF840000205000002080B582B0E5
:1004A00000AF0346FB710021094800F01DFD01214A
:1004B000084800F019FDFB791846FFF7BFFF01213E
:1004C000034800F011FD00BF0837BD4680BD00BFE6
:1004D000840000205000002090B583B000AF044697
:1004E000084611461A462346FB800346BB800B464E
:1004F0007B8013463B802A20FFF7B2FFFB881B0A54
:100500009BB2DBB21846FFF7C9FFFB88DBB2184687
:10051000FFF7C4FF7B881B0A9BB2DBB21846FFF7CC
:10052000BDFF7B88DBB21846FFF7B8FF2B20FFF733
:1005300097FFBB881B0A9BB2DBB21846FFF7AEFFE2
:10054000BB88DBB21846FFF7A9FF3B881B0A9BB2AA
:10055000DBB21846FFF7A2FF3B88DBB21846FFF775
:100560009DFF2C20FFF77CFF00BF0C37BD4690BDE0
:1005700080B500AF0021094800F0B6FCC820FFF7A5
:1005800011FE0021064800F0AFFCC820FFF70AFE6C
:100590000121024800F0A8FC00BF80BD48000020F7
:1005A0008400002080B584B000AF0346FB71FB7966
:1005B000FB733620FFF754FF0120FFF7F3FDFB7BB1
:1005C000032B37D801A252F823F000BFDD05000845
:1005D000F3050008090600081F0600084820FFF779
:1005E0005DFF174BF0221A80164B4FF4A0721A8051
:1005F00021E02820FFF752FF114B4FF4A0721A8020
:10060000104BF0221A8016E08820FFF747FF0C4BB2
:10061000F0221A800B4B4FF4A0721A800BE0E820F6
:10062000FFF73CFF064B4FF4A0721A80054BF022F7
:100630001A8000E000BF00BF1037BD4680BD00BF7C
:10064000020000200000002080B500AF0121024818
:1006500000F04AFC00BF80BD4800002080B500AF1C
:10066000FFF75CFEFFF7F0FFFFF782FF0120FFF7C7
:10067000F7FE4FF47A70FFF795FDCB20FFF7F0FE01
:100680003920FFF70BFF2C20FFF708FF0020FFF7B2
:1006900005FF3420FFF702FF0220FFF7FFFECF2007
:1006A000FFF7DEFE0020FFF7F9FEC120FFF7F6FEA0
:1006B0003020FFF7F3FEE820FFF7D2FE8520FFF79A
:1006C000EDFE0020FFF7EAFE7820FFF7E7FEEA20C4
:1006D000FFF7C6FE0020FFF7E1FE0020FFF7DEFE79
:1006E000ED20FFF7BDFE6420FFF7D8FE0320FFF7E3
:1006F000D5FE1220FFF7D2FE8120FFF7CFFEF720B4
:10070000FFF7AEFE2020FFF7C9FEC020FFF7A8FECE
:100710002320FFF7C3FEC120FFF7A2FE1020FFF742
:10072000BDFEC520FFF79CFE3E20FFF7B7FE282048
:10073000FFF7B4FEC720FFF793FE8620FFF7AEFE5B
:100740003620FFF78DFE4820FFF7A8FE3A20FFF77E
:1007500087FE5520FFF7A2FEB120FFF781FE0020A3
:10076000FFF79CFE1820FFF799FEB620FFF778FEF2
:100770000820FFF793FE8220FFF790FE2720FFF767
:100780008DFEF220FFF76CFE0020FFF787FE26208B
:10079000FFF766FE0120FFF781FEE020FFF760FE15
:1007A0000F20FFF77BFE3120FFF778FE2B20FFF7AD
:1007B00075FE0C20FFF772FE0E20FFF76FFE08207B
:1007C000FFF76CFE4E20FFF769FEF120FFF766FE93
:1007D0003720FFF763FE0720FFF760FE1020FFF7CA
:1007E0005DFE0320FFF75AFE0E20FFF757FE09209B
:1007F000FFF754FE0020FFF751FEE120FFF730FE27
:100800000020FFF74BFE0E20FFF748FE1420FFF7F5
:1008100045FE0320FFF742FE1120FFF73FFE0720B1
:10082000FFF73CFE3120FFF739FEC120FFF736FE0F
:100830004820FFF733FE0820FFF730FE0F20FFF7B8
:100840002DFE0C20FFF72AFE3120FFF727FE362071
:10085000FFF724FE0F20FFF721FE1120FFF700FE17
:100860007820FFF79FFC2920FFF7FAFD0020FFF713
:1008700099FE00BF80BD0000B0B58CB000AF03464C
:100880003960FB806B461D4600237B623B685B0042
:10089000B3F5FA7F02D23B687B6202E04FF4FA7351
:1008A0007B6201213B4800F01FFB00213A4800F029
:1008B0001BFBFB881B0A9BB287F823307C6A23460C
:1008C000013BFB6120464FF000014FF000024FF06A
:1008D0000003CB0043EA5073C20020464FF00001F2
:1008E0004FF000024FF00003CB0043EA5073C20008
:1008F000E31DDB08DB00ADEB030D6B460033BB6192
:100900000023BB620EE0BA69BB6A134497F8232048
:100910001A70BB6A0133FA88D1B2BA69D154BB6A82
:100920000233BB62BA6A7B6A9A42ECD33B685B00D3
:100930007B617A697B6AB2FBF3F33B617B697A6A1C
:10094000B3FBF2F2796A01FB02F29B1AFB603B698E
:10095000002B0FD00023FB6208E0BB697A6A1946BE
:100960000E4800F069FCFB6A0133FB62FA6A3B69DE
:100970009A42F2D3BB69FA681946084800F05CFC59
:100980000121054800F0B0FAAD4600BF3037BD4642
:10099000B0BD00BF5000002084000020680000208F
:1009A00080B582B000AF0346FB800E4B1B889AB225
:1009B0000D4B1B889BB200210020FFF78DFD094BDA
:1009C0001B889BB21A46084B1B889BB203FB02F3A1
:1009D0001A46FB8811461846FFF74EFF00BF08373E
:1009E000BD4680BD020000200000002090B583B00D
:1009F00000AF0446084611461A462346FB800346CC
:100A0000BB800B467B8013463B80244B1B889BB2EC
:100A1000FA889A423DD2224B1B889BB2BA889A42EE
:100A200037D2FA887B8813441C4A128892B29342C8
:100A300005DD1A4B1B889AB2FB88D31A7B80BA88D3
:100A40003B881344164A128892B2934205DD144B38
:100A50001B889AB2BB88D31A3B80FA887B881344E0
:100A60009BB2013B9CB2BA883B8813449BB2013BCA
:100A70009BB2B988F8882246FFF72EFD3B887A881A
:100A800002FB03F31A463B8B11461846FFF7F4FEB0
:100A900000E000BF0C37BD4690BD00BF0200002043
:100AA0000000002080B485B000AF78600023FB73A5
:100AB0007B68002B02D10123FB730EE27B681B795C
:100AC000072B00F2FD807B685B79032B76D801A2AF
:100AD00052F823F0E50A00081B0B0008510B000830
:100AE000870B00087B681B6819687B681B799B0073
:100AF0000F2202FA03F3DA437B681B680A401A608C
:100B00007B681B6819687B681B799B0004229A40EC
:100B10007B681B680A431A6053E07B681B6819688E
:100B20007B681B799B000F2202FA03F3DA437B6890
:100B30001B680A401A607B681B6819687B681B7910
:100B40009B0001229A407B681B680A431A6038E0C8
:100B50007B681B6819687B681B799B000F2202FA6F
:100B600003F3DA437B681B680A401A607B681B68E2
:100B700019687B681B799B0002229A407B681B687E
:100B80000A431A601DE07B681B6819687B681B7943
:100B90009B000F2202FA03F3DA437B681B680A40CA
:100BA0001A607B681B6819687B681B799B000322AD
:100BB0009A407B681B680A431A6002E00123FB73BA
:100BC00000BF7B689B79062B77D801A252F823F0EF
:100BD000ED0B00080D0C0008470C0008ED0B000899
:100BE0000D0C0008470C0008810C00087B681B688E
:100BF00019687B681B799B000233032202FA03F316
:100C0000DA437B681B680A401A6066E17B681B68F0
:100C100019687B681B799B000233032202FA03F3F5
:100C2000DA437B681B680A401A607B681B68196896
:100C30007B681B799B00023301229A407B681B680A
:100C40000A431A6049E17B681B6819687B681B7955
:100C50009B000233032202FA03F3DA437B681B682A
:100C60000A401A607B681B6819687B681B799B00C7
:100C7000023302229A407B681B680A431A602CE107
:100C80007B681B6819687B681B799B000233032211
:100C900002FA03F3DA437B681B680A401A607B6838
:100CA0001B6819687B681B799B00023303229A40FA
:100CB0007B681B680A431A600FE10123FB730CE198
:100CC0007B685B79032B7FD801A252F823F000BF29
:100CD000E10C00081B0D0008550D00088F0D0008E1
:100CE0007B681B6859687B681B79083B9B000F2257
:100CF00002FA03F3DA437B681B680A405A607B6898
:100D00001B6859687B681B79083B9B0004229A404A
:100D10007B681B680A435A6059E07B681B68596806
:100D20007B681B79083B9B000F2202FA03F3DA432E
:100D30007B681B680A405A607B681B6859687B683F
:100D40001B79083B9B0001229A407B681B680A4381
:100D50005A603CE07B681B6859687B681B79083BDC
:100D60009B000F2202FA03F3DA437B681B680A40F8
:100D70005A607B681B6859687B681B79083B9B003D
:100D800002229A407B681B680A435A601FE07B6816
:100D90001B6859687B681B79083B9B000F2202FA8D
:100DA00003F3DA437B681B680A405A607B681B6860
:100DB00059687B681B79083B9B0003229A407B683B
:100DC0001B680A435A6002E00123FB7300BF7B6883
:100DD0009B79062B7ED801A252F823F0F90D00086A
:100DE0001B0E0008590E0008F90D00081B0E000824
:100DF000590E0008970E00087B681B6859687B68CD
:100E00001B79083B9B000233032202FA03F3DA4307
:100E10007B681B680A405A605FE07B681B68596802
:100E20007B681B79083B9B000233032202FA03F321
:100E3000DA437B681B680A405A607B681B68596804
:100E40007B681B79083B9B00023301229A407B6838
:100E50001B680A435A6040E07B681B6859687B68DE
:100E60001B79083B9B000233032202FA03F3DA43A7
:100E70007B681B680A405A607B681B6859687B68FE
:100E80001B79083B9B00023302229A407B681B6857
:100E90000A435A6021E07B681B6859687B681B79AC
:100EA000083B9B000233032202FA03F3DA437B6818
:100EB0001B680A405A607B681B6859687B681B790D
:100EC000083B9B00023303229A407B681B680A435D
:100ED0005A6002E00123FB7300BFFB7B1846143706
:100EE000BD4680BC704700BF80B485B000AF78605D
:100EF0000B46FB700023FB737B68002B02D10123A0
:100F0000FB7323E0FB78002B0DD17B681B685969CC
:100F10007B681B791A46012303FA02F27B681B687F
:100F20000A435A6112E0FB78012B0DD17B681B68E4
:100F300019697B681B791A46012303FA02F27B6860
:100F40001B680A431A6101E00123FB73FB7B18460F
:100F50001437BD4680BC704780B485B000AF786060
:100F60000023FB737B68002B02D10123FB735CE140
:100F70007B681B7D012B08D17B681B681A687B6826
:100F80001B6822F400721A6023E07B681B7D002B33
:100F900008D17B681B681A687B681B6842F4007282
:100FA0001A6016E07B681B7D022B10D17B681B68E2
:100FB0001A687B681B6842F400721A607B681B68C1
:100FC0001A687B681B6842F480721A6001E0012392
:100FD000FB737B681B79002B08D17B681B681A6840
:100FE0007B681B6842F004021A600EE07B681B7984
:100FF000012B08D17B681B681A687B681B6822F08C
:1010000004021A6001E00123FB737B685B7D012B06
:1010100008D17B681B681A687B681B6842F4004231
:101020001A600EE07B685B7D002B08D17B681B6833
:101030001A687B681B6822F400421A6001E00123F1
:10104000FB737B685B7C002B08D17B681B681A688C
:101050007B681B6822F400621A600EE07B685B7C90
:10106000012B08D17B681B681A687B681B6842F4F7
:1010700000621A6001E00123FB737B689B79002BFF
:1010800008D17B681B681A687B681B6822F0020223
:101090001A600EE07B689B79012B08D17B681B6886
:1010A0001A687B681B6842F002021A6001E00123A3
:1010B000FB737B68DB79002B08D17B681B681A689F
:1010C0007B681B6822F001021A600EE07B68DB7906
:1010D000012B08D17B681B681A687B681B6842F08B
:1010E00001021A6001E00123FB737B689B7C002BEB
:1010F00008D17B681B685A687B681B6842F0020253
:101100005A6007E07B681B685A687B681B6822F09E
:1011100002025A607B68DB7C002B08D17B681B686D
:101120005A687B681B6842F001025A6007E07B68DE
:101130001B685A687B681B6822F001025A607B6852
:101140005B79072B66D801A252F823F06D110008D5
:101150007F11000895110008AB110008C1110008AB
:10116000D7110008ED110008031200087B681B6806
:101170001A687B681B6822F038021A604DE07B68B1
:101180001B681B6823F038027B681B6842F008026A
:101190001A6042E07B681B681B6823F038027B689A
:1011A0001B6842F010021A6037E07B681B681B68FE
:1011B00023F038027B681B6842F018021A602CE0AA
:1011C0007B681B681B6823F038027B681B6842F051
:1011D00020021A6021E07B681B681B6823F038023C
:1011E0007B681B6842F028021A6016E07B681B6867
:1011F0001B6823F038027B681B6842F030021A60DB
:101200000BE07B681B681A687B681B6842F0380239
:101210001A6002E00123FB7300BF7B681B681A6839
:101220007B681B6842F040021A60FB7B184614374B
:10123000BD4680BC704700BF80B487B000AFF86087
:10124000B9607A600023FB75FB68002B02D0BB6895
:10125000002B02D10123FB7535E000233B61FB68C5
:101260005B7C002B2BD112E000BFFB681B689B68E6
:101270005B0803F00103002BF7D0BA683B69134405
:101280001A78FB681B68DA603B6901333B613A6995
:101290007B689A42E8D316E000BFFB681B689B6836
:1012A0005B0803F00103002BF7D0BA683B691344D5
:1012B0001A78FB681B68DA603B6901333B613A6965
:1012C0007B689A42E8D3FB7D18461C37BD4680BC3C
:1012D000704780B584B002AF00F024F8FFF7BEF984
:1012E0000623FB710020FFF75BFB4FF6FF70FFF753
:1012F00057FB0320FFF756F94FF4FA60FEF752FF51
:101300000020FFF74DFB4FF4784300933223322245
:1013100000210020FFF76AFB4FF4FA60FEF742FF5E
:10132000E0E7000080B500AFFEF722FF534B9B695A
:10133000524A43F004039361504B9B694F4A43F078
:10134000080393614D4B9B694C4A43F4805393616E
:101350004A4B5B69494A43F001035361474BDB69E0
:10136000464A43F48043D361454B464A1A60444B96
:1013700001221A71424B00225A74414B00229A7189
:101380003F4B0022DA713E4B00225A713C4B012246
:101390001A753B4B00225A75394B00229A75384B0F
:1013A00001221A74364B0022DA75354B01221A7667
:1013B000334B01229A74324B0022DA74324B334A97
:1013C0001A60314B0F221A712F4B00225A712E4B8B
:1013D00001229A712C48FFF765FB2D4B2B4A1A60AE
:1013E0002B4B0E221A712A4B02225A71284B0522CE
:1013F0009A712748FFF756FB264B244A1A60254B63
:101400000D221A71234B00225A71224B01229A712C
:101410002048FFF747FB204B1C4A1A601E4B0C224A
:101420001A711D4B00225A711B4B01229A711A48E6
:10143000FFF738FB194B1A4A1A60184B01221A722F
:10144000164B01221A71154B00225A71134B0022C0
:101450009A71124B0022DA71104B00225A720F4B14
:1014600001229A720D4B0022DA72054B0B4ADA60A8
:101470000348FFF771FD00BF80BD00BF00100240B0
:10148000A80000200038004098000020000C014017
:10149000D0000020F80000200C01002000010020F6
:1014A0004400024080B400AF044BDB68034A43F0C1
:1014B0000103D36000BFBD4680BC704700080140F7
:1014C0000D488546AFF300800C480D490D4A0023B6
:1014D00002E0D458C4500433C4188C42F9D30A4AE9
:1014E0000A4C002301E013600432A242FBD300F057
:1014F00011F8FFF7EEFEFEE70028002000000020B4
:10150000040000207C1500080400002030010020A9
:10151000FEE7000070B500260C4D0D4C641BA410B6
:10152000A64209D100F01AF800260A4D0A4C641BA5
:10153000A410A64205D170BD55F8043B984701366A
:10154000EEE755F8043B98470136F2E774150008BA
:10155000741500087415000878150008F8B500BF68
:10156000F8BC08BC9E467047F8B500BFF8BC08BC84
:041570009E467047DC
:041574005501000815
:041578003101000835
:04157C00F00040013A
:04000005080014C11A
:00000001FF
