:020000040800F2
:1000000000280020150300086503000865030008A8
:100010006503000865030008650300080000000090
:100020000000000000000000000000006503000860
:100030006503000800000000650300086503000870
:10004000F90200086503000865030008650300085D
:1000500065030008650300086503000865030008E0
:1000600065030008650300086503000865030008D0
:1000700065030008650300086503000865030008C0
:1000800065030008650300086503000865030008B0
:1000900065030008650300086503000865030008A0
:1000A0006503000865030008650300086503000890
:1000B0006503000865030008650300086503000880
:1000C0006503000865030008650300086503000870
:1000D0006503000865030008650300086503000860
:1000E00065030008650300080000000065030008C0
:1000F0006503000865030008650300086503000840
:10010000650300086503000865030008650300082F
:10011000650300086503000865030008650300081F
:10012000650300086503000865030008650300080F
:1001300010B5054C237833B9044B13B10448AFF321
:1001400000800123237010BD00000020000000008B
:10015000B003000808B5034B1BB103490348AFF3D4
:10016000008008BD0000000004000020B00300086B
:1001700080B485B000AF78600023FB737B68002BF0
:1001800002D10123FB7380E07B685B79002B02D0F6
:10019000012B09D011E07B681B689A687B681B689B
:1001A00022F010029A6008E07B681B689A687B68FE
:1001B0001B6842F010029A6000BF7B681B7A002B1C
:1001C00002D0012B09D011E07B681B689A687B681C
:1001D0001B6842F480429A6008E07B681B689A685A
:1001E0007B681B6822F480429A6000BF7B681B79A1
:1001F000002B0ED0012B16D17B681B7A002B11D05F
:100200007B681B689A687B681B6822F020029A60F2
:1002100008E07B681B689A687B681B6842F02002D4
:100220009A6000E000BF7B685B7A002B02D0012B54
:1002300009D011E07B681B689A687B681B6842F0F4
:1002400080029A6008E07B681B689A687B681B687C
:1002500022F080029A6000BF7B689B7A002B02D05C
:10026000012B09D011E07B681B689A687B681B68CA
:1002700042F040029A6008E07B681B689A687B68DD
:100280001B6822F040029A6000BFFB7B18461437BF
:10029000BD4680BC7047000080B584B000AF134BF2
:1002A0009B69124A43F004039361114B1B68104A87
:1002B00043F0010313600E4B1B680D4A23F0040347
:1002C00013600B4BDB680A4A43F00103D360094B10
:1002D0007B6001237B7200233B7300237B7301232C
:1002E0003B723B1D1846FFF743FFFEE7001002403C
:1002F000000801400000024080B400AF044BDB68FE
:10030000034A43F00103D36000BFBD4680BC704781
:10031000000801400D488546AFF300800C480D49A8
:100320000D4A002302E0D458C4500433C4188C4250
:10033000F9D30A4A0A4C002301E013600432A242B6
:10034000FBD300F011F8FFF7A7FFFEE7002800201D
:100350000000002000000020D00300080000002062
:100360001C000020FEE7000070B500260C4D0D4C6F
:10037000641BA410A64209D100F01AF800260A4D09
:100380000A4C641BA410A64205D170BD55F8043B6D
:1003900098470136EEE755F8043B98470136F2E7F7
:1003A000C8030008C8030008C8030008CC030008FD
:1003B000F8B500BFF8BC08BC9E467047F8B500BF52
:0803C000F8BC08BC9E46704722
:0403C80055010008D3
:0403CC0031010008F3
:0400000508000315D7
:00000001FF
