:020000040800F2
:1000000000280020690C0008B90C0008B90C000891
:10001000B90C0008B90C0008B90C00080000000079
:10002000000000000000000000000000B90C000803
:10003000B90C000800000000B90C00084D020008CF
:100040004D0C0008B90C0008B90C0008B90C0008E8
:10005000B90C0008B90C0008B90C0008B90C00086C
:10006000B90C0008B90C0008B90C0008850200089A
:1000700099020008AD020008C1020008CD02000884
:10008000D9020008E5020008B90C0008B90C000804
:10009000B90C0008B90C0008B90C0008B90C00082C
:1000A000B90C0008B90C0008B90C0008B90C00081C
:1000B000B90C0008B90C0008B90C0008B90C00080C
:1000C000B90C0008B90C0008B90C0008B90C0008FC
:1000D000B90C0008B90C0008B90C0008B90C0008EC
:1000E000B90C0008B90C000800000000B90C0008A9
:1000F000B90C0008B90C0008B90C0008B90C0008CC
:10010000B90C0008B90C0008B90C0008B90C0008BB
:10011000B90C0008B90C0008B90C0008B90C0008AB
:10012000F1020008FD02000809030008B90C0008EC
:1001300010B5054C237833B9044B13B10448AFF321
:1001400000800123237010BD040000200000000087
:10015000040D000808B5034B1BB103490348AFF376
:10016000008008BD0000000008000020040D000809
:1001700080B400AF0A4B1B68094A23F001031360E7
:10018000074B1B68064A43F002031360044B1B68CD
:10019000034A43F00403136000BFBD4680BC7047B0
:1001A00010E000E080B584B000AF78601A4B1B68A7
:1001B000194A23F0010313600023FB607B68BB60D6
:1001C0004FF4FA5000F02AF8134B1B68124A23F040
:1001D00002031360104B1B680F4A43F001031360C6
:1001E00010E000BF0C4B1B681B0C03F00103002B3D
:1001F000F8D0094B1B68084A43F480331360FB684E
:100200000133FB60FA68BB689A42EAD300BF00BFC3
:100210001037BD4680BD00BF10E000E080B483B061
:1002200000AF78607B68B3F1807F04D9064B4FF054
:1002300080725A6002E0044A7B68536000BF0C374A
:10024000BD4680BC704700BF10E000E080B500AF45
:10025000094B1A68094B1B689A4205D2064B1B686A
:100260000133054A136005E0034B00221A60044B7A
:100270001B68984700BF80BD200000202800002098
:100280002400002080B500AF024B1B68984700BFD8
:1002900080BD00BF2C00002080B500AF024B1B6862
:1002A000984700BF80BD00BF3800002080B500AF78
:1002B000024B1B68984700BF80BD00BF3000002084
:1002C00080B400AF00BFBD4680BC704780B400AFB3
:1002D00000BFBD4680BC704780B400AF00BFBD46C4
:1002E00080BC704780B400AF00BFBD4680BC704783
:1002F00080B400AF00BFBD4680BC704780B400AF83
:1003000000BFBD4680BC704780B400AF00BFBD4693
:1003100080BC704780B485B000AF78600023FB7369
:100320007B68002B02D10123FB730EE27B681B79F3
:10033000072B00F2FD807B685B79032B76D801A246
:1003400052F823F0550300088B030008C10300088E
:10035000F70300087B681B6819687B681B799B00A2
:100360000F2202FA03F3DA437B681B680A401A6023
:100370007B681B6819687B681B799B0004229A4084
:100380007B681B680A431A6053E07B681B68196826
:100390007B681B799B000F2202FA03F3DA437B6828
:1003A0001B680A401A607B681B6819687B681B79A8
:1003B0009B0001229A407B681B680A431A6038E060
:1003C0007B681B6819687B681B799B000F2202FA07
:1003D00003F3DA437B681B680A401A607B681B687A
:1003E00019687B681B799B0002229A407B681B6816
:1003F0000A431A601DE07B681B6819687B681B79DB
:100400009B000F2202FA03F3DA437B681B680A4061
:100410001A607B681B6819687B681B799B00032244
:100420009A407B681B680A431A6002E00123FB7351
:1004300000BF7B689B79062B77D801A252F823F086
:100440005D0400087D040008B70400085D0400088E
:100450007D040008B7040008F10400087B681B68ED
:1004600019687B681B799B000233032202FA03F3AD
:10047000DA437B681B680A401A6066E17B681B6888
:1004800019687B681B799B000233032202FA03F38D
:10049000DA437B681B680A401A607B681B6819682E
:1004A0007B681B799B00023301229A407B681B68A2
:1004B0000A431A6049E17B681B6819687B681B79ED
:1004C0009B000233032202FA03F3DA437B681B68C2
:1004D0000A401A607B681B6819687B681B799B005F
:1004E000023302229A407B681B680A431A602CE19F
:1004F0007B681B6819687B681B799B0002330322A9
:1005000002FA03F3DA437B681B680A401A607B68CF
:100510001B6819687B681B799B00023303229A4091
:100520007B681B680A431A600FE10123FB730CE12F
:100530007B685B79032B7FD801A252F823F000BFC0
:10054000510500088B050008C5050008FF050008D7
:100550007B681B6859687B681B79083B9B000F22EE
:1005600002FA03F3DA437B681B680A405A607B682F
:100570001B6859687B681B79083B9B0004229A40E2
:100580007B681B680A435A6059E07B681B6859689E
:100590007B681B79083B9B000F2202FA03F3DA43C6
:1005A0007B681B680A405A607B681B6859687B68D7
:1005B0001B79083B9B0001229A407B681B680A4319
:1005C0005A603CE07B681B6859687B681B79083B74
:1005D0009B000F2202FA03F3DA437B681B680A4090
:1005E0005A607B681B6859687B681B79083B9B00D5
:1005F00002229A407B681B680A435A601FE07B68AE
:100600001B6859687B681B79083B9B000F2202FA24
:1006100003F3DA437B681B680A405A607B681B68F7
:1006200059687B681B79083B9B0003229A407B68D2
:100630001B680A435A6002E00123FB7300BF7B681A
:100640009B79062B7ED801A252F823F06906000898
:100650008B060008C9060008690600088B0600081A
:10066000C9060008070700087B681B6859687B6893
:100670001B79083B9B000233032202FA03F3DA439F
:100680007B681B680A405A605FE07B681B6859689A
:100690007B681B79083B9B000233032202FA03F3B9
:1006A000DA437B681B680A405A607B681B6859689C
:1006B0007B681B79083B9B00023301229A407B68D0
:1006C0001B680A435A6040E07B681B6859687B6876
:1006D0001B79083B9B000233032202FA03F3DA433F
:1006E0007B681B680A405A607B681B6859687B6896
:1006F0001B79083B9B00023302229A407B681B68EF
:100700000A435A6021E07B681B6859687B681B7943
:10071000083B9B000233032202FA03F3DA437B68AF
:100720001B680A405A607B681B6859687B681B79A4
:10073000083B9B00023303229A407B681B680A43F4
:100740005A6002E00123FB7300BFFB7B184614379D
:10075000BD4680BC704700BF80B485B000AF7860F4
:100760000023FB737B68002B02D10123FB7302E1A2
:100770007B681B681A687B681B6842F040021A603D
:100780007B681B79002B08D17B681B681A687B6823
:100790001B6842F004021A600EE07B681B79012B93
:1007A00008D17B681B681A687B681B6822F004020A
:1007B0001A6001E00123FB737B685B7A002B08D190
:1007C0007B681B681A687B681B6822F400621A60E9
:1007D0000EE07B685B7A012B08D17B681B681A6886
:1007E0007B681B6842F400621A6001E00123FB731E
:1007F0007B689B79002B08D17B681B681A687B6833
:100800001B6822F002021A600EE07B689B79012BC4
:1008100008D17B681B681A687B681B6842F002027B
:100820001A6001E00123FB737B68DB79002B08D1A0
:100830007B681B681A687B681B6822F001021A60DB
:100840000EE07B68DB79012B08D17B681B681A6896
:100850007B681B6842F001021A6001E00123FB7310
:100860007B689B7A012B08D17B681B681A687B68C0
:100870001B6822F400721A600EE07B689B7A002BE2
:1008800008D17B681B681A687B681B6842F4007299
:100890001A6001E00123FB737B685B79072B67D843
:1008A00001A252F823F000BFC9080008DB080008C5
:1008B000F1080008070900081D09000833090008AD
:1008C000490900085F0900087B681B681A687B6893
:1008D0001B6822F038021A604DE07B681B681B68B9
:1008E00023F038027B681B6842F008021A6042E07D
:1008F0007B681B681B6823F038027B681B6842F02A
:1009000010021A6037E07B681B681B6823F038020E
:100910007B681B6842F018021A602CE07B681B6839
:100920001B6823F038027B681B6842F020021A60C3
:1009300021E07B681B681B6823F038027B681B681A
:1009400042F028021A6016E07B681B681B6823F0DF
:1009500038027B681B6842F030021A600BE07B684B
:100960001B681A687B681B6842F038021A6002E054
:100970000123FB7300BFFB7B18461437BD4680BCC8
:10098000704700BF80B487B000AFF860B9607A608C
:100990003B600023FB75FB68002B02D0BB68002B7B
:1009A00002D10123FB7535E000233B61FB685B7AD4
:1009B000002B2BD112E000BFFB681B689B685B0813
:1009C00003F00103002BF7D0BA683B6913441A788F
:1009D000FB681B68DA603B6901333B613A697B68FD
:1009E0009A42E8D316E000BFFB681B689B685B086F
:1009F00003F00103002BF7D0BA683B6913441A785F
:100A0000FB681B68DA603B6901333B613A697B68CC
:100A10009A42E8D3FB7D18461C37BD4680BC704720
:100A200080B500AF00F010F84FF47A730222044949
:100A30000448FFF7A7FF4FF4FA70FFF7B3FBF3E7A3
:100A400000000020A800002080B500AFFFF790FB59
:100A50006F4B9B696E4A43F0040393616C4B9B6937
:100A60006B4A43F008039361694B9B69684A43F4FE
:100A700080539361674B684A1A60664B00221A7173
:100A8000644B00225A72634B00229A71614B002220
:100A9000DA71604B00225A715E4B01229A725D4BF3
:100AA0000022DA725B4B00221A735A4B01221A722F
:100AB000584B00225A73574B01229A73574B584A8E
:100AC0001A60564B07221A71544B03225A71534B2A
:100AD00003229A715148FFF71DFC524B504A1A608D
:100AE000504B06221A714F4B00225A714D4B012276
:100AF0009A714C48FFF70EFC4B4B494A1A604A4B1F
:100B000005221A71484B03225A71474B03229A71EE
:100B10004548FFF7FFFB454B414A1A60434B04220F
:100B20001A71424B03225A71404B03229A713F487B
:100B3000FFF7F0FB3748FFF70FFE354BDB69344A10
:100B400043F48043D3613A4B3A4A1A60384B01224E
:100B50001A71374B00225A72354B00229A71344B6E
:100B60000022DA71324B00225A71314B01229A7203
:100B70002F4B0022DA722E4B00221A732C4B0122CB
:100B80001A722B4B00225A73294B01229A732A4B5B
:100B90002A4A1A60284B0F221A71274B03225A71D6
:100BA000254B03229A712448FFF7B4FB244B234AB8
:100BB0001A60234B0E221A71214B00225A71204BCE
:100BC00001229A711E48FFF7A5FB1E4B1B4A1A60B3
:100BD0001C4B0D221A711B4B03225A71194B032215
:100BE0009A711848FFF796FB174B144A1A60164B78
:100BF0000C221A71144B03225A71134B03229A715F
:100C00001148FFF787FB0A48FFF7A6FD00BF80BD2C
:100C100000100240A80000200030014088000020A1
:100C200000080140900000207C0000205C000020B3
:100C3000640000200038004054000020000C0140F7
:100C40007400002098000020A000002080B400AFB5
:100C5000044BDB68034A43F00103D36000BFBD4689
:100C600080BC7047000801400D488546AFF3008006
:100C70000C480D490D4A002302E0D458C4500433F7
:100C8000C4188C42F9D30A4A0A4C002301E01360CD
:100C90000432A242FBD300F011F8FFF7C1FEFEE7D9
:100CA000002800200000002004000020240D00087F
:100CB00004000020B8000020FEE7000070B5002608
:100CC0000C4D0D4C641BA410A64209D100F01AF87B
:100CD00000260A4D0A4C641BA410A64205D170BD23
:100CE00055F8043B98470136EEE755F8043B984722
:100CF0000136F2E71C0D00081C0D00081C0D000851
:100D0000200D0008F8B500BFF8BC08BC9E4670472F
:0C0D1000F8B500BFF8BC08BC9E46704758
:040D1C005501000875
:040D20003101000895
:040D240002030000C6
:0400000508000C697A
:00000001FF
