:020000040800F2
:1000000000280020FD0500084D0600084D060008E8
:100010004D0600084D0600084D06000800000000CF
:100020000000000000000000000000004D06000875
:100030004D060008000000004D0600084D060008AF
:10004000B10500084D0600084D0600084D060008E1
:100050004D0600084D0600084D0600084D06000834
:100060004D0600084D0600084D06000895040008DE
:10007000A9040008BD040008D1040008DD0400083C
:10008000E9040008F50400084D0600084D060008C4
:100090004D0600084D0600084D0600084D060008F4
:1000A0004D0600084D0600084D0600084D060008E4
:1000B0004D0600084D0600084D0600084D060008D4
:1000C0004D0600084D0600084D0600084D060008C4
:1000D0004D0600084D0600084D0600084D060008B4
:1000E0004D0600084D060008000000004D060008FF
:1000F0004D0600084D0600084D0600084D06000894
:100100004D0600084D0600084D0600084D06000883
:100110004D0600084D0600084D0600084D06000873
:10012000010500080D050008190500084D06000826
:1001300010B5054C237833B9044B13B10448AFF321
:1001400000800123237010BD040000200000000087
:100150009806000808B5034B1BB103490348AFF3E9
:10016000008008BD0000000008000020980600087C
:1001700080B483B000AF0346FB710D4A97F9073096
:100180005B115BB252F82330FA7902F01F020121B1
:1001900001FA02F21046064997F90720521152B2AD
:1001A000034341F8223000BF0C37BD4680BC704786
:1001B00000E100E080B485B000AF78600023FB73FD
:1001C0007B68002B02D10123FB7399E07B685B798C
:1001D000002B02D0012B09D011E07B681B689A68C4
:1001E0007B681B6822F010029A6008E07B681B683D
:1001F0009A687B681B6842F010029A6000BF7B68B7
:100200001B7A002B02D0012B09D011E07B681B6800
:100210009A687B681B6842F480429A6008E07B68B9
:100220001B689A687B681B6822F480429A6000BF52
:100230007B681B79002B0ED0012B16D17B681B7AB3
:10024000002B11D07B681B689A687B681B6822F0C2
:1002500020029A6008E07B681B689A687B681B68CC
:1002600042F020029A6000E000BF7B685B7A002BBE
:1002700002D0012B09D011E07B681B689A687B686B
:100280001B6842F080029A6008E07B681B689A68ED
:100290007B681B6822F080029A6000BF7B689B7AB3
:1002A000002B02D0012B09D011E07B681B689A68F3
:1002B0007B681B6842F040029A6008E07B681B681C
:1002C0009A687B681B6822F040029A6000BF7B68D6
:1002D000DB7A002B02D0012B09D011E07B681B6870
:1002E0009A687B681B6842F002029A6008E07B68AB
:1002F0001B689A687B681B6822F002029A6000BF44
:10030000FB7B18461437BD4680BC704780B485B06F
:1003100000AF786039600023FB733B68002B02D08C
:100320007B68002B02D10123FB7303E07B681B6811
:100330003A681A61FB7B18461437BD4680BC70478B
:1003400080B485B000AF786039600023FB733B68F0
:10035000002B02D07B68002B02D10123FB7303E04A
:100360007B681B683A685A61FB7B18461437BD46A8
:1003700080BC704780B485B000AF78600023FB7309
:100380007B68002B02D10123FB7307E07B681B68AD
:100390009A687B681B6842F001029A60FB7B1846F2
:1003A0001437BD4680BC704780B485B000AF78601C
:1003B00039600023FB737B68002B02D10123FB73A0
:1003C00003E07B681B683A68DA60FB7B18461437E9
:1003D000BD4680BC704780B586B000AFF860B9609C
:1003E0007A603B600023FB75FB68002B02D1012380
:1003F000FB750EE0B968F868FFF7A2FF7968F86846
:10040000FFF784FF3968F868FFF7CEFFF868FFF759
:10041000B1FFFB7D18461837BD4680BD80B485B05E
:1004200000AF786039600023FB737B68002B02D13A
:100430000123FB731BE07B681B68104A934211D0B9
:100440000E4A934212D80E4A934203D00D4A934269
:1004500004D00BE00C4A3B68136008E00B4A3B6891
:10046000136004E00A4A3B68136000E000BFFB7BB6
:1004700018461437BD4680BC704700BF30000240AC
:10048000000002401C000240200000202C00002040
:100490002400002080B500AF024B1B68984700BFC6
:1004A00080BD00BF2000002080B500AF024B1B685C
:1004B000984700BF80BD00BF2C00002080B500AF72
:1004C000024B1B68984700BF80BD00BF240000207E
:1004D00080B400AF00BFBD4680BC704780B400AFA1
:1004E00000BFBD4680BC704780B400AF00BFBD46B2
:1004F00080BC704780B400AF00BFBD4680BC704771
:1005000080B400AF00BFBD4680BC704780B400AF70
:1005100000BFBD4680BC704780B400AF00BFBD4681
:1005200080BC704780B584B000AF1B4B9B691A4AF2
:1005300043F004039361184B5B69174A43F00103CE
:1005400053610B20FFF714FE144B1B68134A43F052
:1005500001031360114B1B68104A23F0040313605E
:100560000F4B7B6001237B7200233B7300237B7363
:1005700001233B720023FB733B1D1846FFF71AFE55
:100580003B1D08491846FFF749FF381D0223064A5C
:100590000649FFF720FFFEE7001002400008014077
:1005A00000000240CD0500083C00002000000020B3
:1005B00080B400AF044BDB68034A43F00103D3600F
:1005C00000BFBD4680BC70470008014080B400AF4A
:1005D000074B5A78074B5B789A4205D0064BDB688D
:1005E000054A43F00103D36000BFBD4680BC70479D
:1005F000000000203C000020000801400D48854616
:10060000AFF300800C480D490D4A002302E0D45896
:10061000C4500433C4188C42F9D30A4A0A4C00234C
:1006200001E013600432A242FBD300F011F8FFF79F
:1006300079FFFEE7002800200000002004000020D1
:10064000B80600080400002040000020FEE700007B
:1006500070B500260C4D0D4C641BA410A64209D1A8
:1006600000F01AF800260A4D0A4C641BA410A6429A
:1006700005D170BD55F8043B98470136EEE755F8B3
:10068000043B98470136F2E7B0060008B0060008C0
:10069000B0060008B4060008F8B500BFF8BC08BCF6
:1006A0009E467047F8B500BFF8BC08BC9E46704730
:0406B00055010008E8
:0406B4003101000808
:0406B8000203000039
:04000005080005FDED
:00000001FF
