:020000040800F2
:10000000002800209D290008ED290008ED2900089E
:10001000ED290008ED290008ED2900080000000086
:10002000000000000000000000000000ED290008B2
:10003000ED29000800000000ED290008750B0008FC
:1000400015290008ED290008ED290008ED29000810
:10005000ED290008ED290008ED290008ED29000828
:10006000ED290008ED290008ED2900080D0F000812
:10007000210F0008350F0008490F00085D0F000828
:10008000690F0008750F0008ED290008ED29000828
:10009000ED290008ED290008ED290008ED290008E8
:1000A000ED290008ED290008ED290008ED290008D8
:1000B000A9250008ED290008ED290008ED29000810
:1000C000ED290008ED290008ED290008ED290008B8
:1000D000ED290008ED290008ED290008ED290008A8
:1000E000ED290008ED29000800000000ED290008B6
:1000F000ED290008ED290008ED290008ED29000888
:10010000ED290008ED290008ED290008ED29000877
:10011000ED290008ED290008ED290008ED29000867
:10012000810F00088D0F0008990F0008ED290008C5
:1001300010B5054C237833B9044B13B10448AFF321
:1001400000800123237010BD680000200000000023
:10015000B832000808B5034B1BB103490348AFF39D
:10016000008008BD000000006C000020B8320008CC
:10017000034613F8012B002AFBD1181A01387047E7
:1001800070B54FF0FF0C4CF4E06C1CEA11541DBF2D
:100190001CEA135594EA0C0F95EA0C0F00F0DEF8F8
:1001A0002C4481EA030621EA4C5123EA4C5350EADD
:1001B000013518BF52EA033541F4801143F480132E
:1001C00038D0A0FB02CE4FF00005E1FB02E506F0BF
:1001D0000042E0FB03E54FF00006E1FB03569CF014
:1001E000000F18BF4EF0010EA4F1FF04B6F5007F1A
:1001F00064F5407404D25FEA4E0E6D4146EB06068C
:1002000042EAC62141EA55514FEAC52040EA5E5014
:100210004FEACE2EB4F1FD0C88BFBCF5E06F1ED8BE
:10022000BEF1004F08BF5FEA500E50F1000041EBF5
:10023000045170BD06F0004646EA010140EA0200A2
:1002400081EA0301B4EB5C04C2BFD4EB0C0541EAC4
:10025000045170BD41F480114FF0000E013C00F3D9
:10026000AB8014F1360FDEBF002001F0004170BDFD
:10027000C4F10004203C35DA0C341BDC04F1140416
:10028000C4F1200500FA05F320FA04F001FA05F2A2
:1002900040EA020001F0004221F0004110EBD3706F
:1002A00021FA04F642EB06015EEA430E08BF20EA9B
:1002B000D37070BDC4F10C04C4F1200500FA04F33E
:1002C00020FA05F001FA04F240EA020001F00041D0
:1002D00010EBD37041F100015EEA430E08BF20EA43
:1002E000D37070BDC4F1200500FA05F24EEA020E8B
:1002F00020FA04F301FA05F243EA020321FA04F0BA
:1003000001F0004121FA04F220EA020000EBD37070
:100310005EEA430E08BF20EAD37070BD94F0000F70
:100320000FD101F00046400041EB010111F4801FA4
:1003300008BF013CF7D041EA060195F0000F18BF55
:10034000704703F00046520043EB030313F4801F91
:1003500008BF013DF7D043EA0603704794EA0C0F4B
:100360000CEA135518BF95EA0C0F0CD050EA410661
:1003700018BF52EA4306D1D181EA030101F00041DE
:100380004FF0000070BD50EA410606BF1046194606
:1003900052EA430619D094EA0C0F02D150EA013612
:1003A00013D195EA0C0F05D152EA03361CBF104653
:1003B00019460AD181EA030101F0004141F0FE41F2
:1003C00041F470014FF0000070BD41F0FE4141F476
:1003D000780170BD81F0004102E000BF83F000436E
:1003E00030B54FEA41044FEA430594EA050F08BFD0
:1003F00090EA020F1FBF54EA000C55EA020C7FEA94
:10040000645C7FEA655C00F0E2804FEA5454D4EB10
:100410005555B8BF6D420CDD2C4480EA020281EADA
:10042000030382EA000083EA010180EA020281EA12
:100430000303362D88BF30BD11F0004F4FEA013164
:100440004FF4801C4CEA113102D0404261EB410173
:1004500013F0004F4FEA03334CEA133302D05242F9
:1004600063EB430394EA050F00F0A780A4F10104B5
:10047000D5F1200E0DDB02FA0EFC22FA05F28018EF
:1004800041F1000103FA0EF2801843FA05F35941D5
:100490000EE0A5F120050EF1200E012A03FA0EFC54
:1004A00028BF4CF0020C43FA05F3C01851EBE3717E
:1004B00001F0004507D54FF0000EDCF1000C7EEB9B
:1004C00000006EEB0101B1F5801F1BD3B1F5001FD9
:1004D0000CD349085FEA30004FEA3C0C04F10104F8
:1004E0004FEA445212F5800F80F09A80BCF1004F21
:1004F00008BF5FEA500C50F1000041EB045141EAA3
:10050000050130BD5FEA4C0C404141EB0101013C6B
:1005100028BFB1F5801FE9D291F0000F04BF01465A
:100520000020B1FA81F308BF2033A3F10B03B3F12C
:1005300020020CDA0C3208DD02F1140CC2F10C02BC
:1005400001FA0CF021FA02F10CE002F11402D8BF1A
:10055000C2F1200C01FA02F120FA0CFCDCBF41EAE6
:100560000C019040E41AA2BF01EB0451294330BDB5
:100570006FEA04041F3C1CDA0C340EDC04F1140492
:10058000C4F1200220FA04F001FA02F340EA030069
:1005900021FA04F345EA030130BDC4F10C04C4F1AF
:1005A000200220FA02F001FA04F340EA030029468F
:1005B00030BD21FA04F0294630BD94F0000F83F4D9
:1005C000801306BF81F480110134013D4EE77FEABC
:1005D000645C18BF7FEA655C29D094EA050F08BF08
:1005E00090EA020F05D054EA000C04BF19461046E9
:1005F00030BD91EA030F1EBF0021002030BD5FEA2D
:10060000545C05D14000494128BF41F0004130BD54
:1006100014F580043CBF01F5801130BD01F00045A8
:1006200045F0FE4141F470014FF0000030BD7FEA1B
:10063000645C1ABF194610467FEA655C1CBF0B4616
:10064000024650EA013406BF52EA033591EA030F2D
:1006500041F4002130BD00BF90F0000F04BF002125
:10066000704730B54FF4806404F132044FF0000558
:100670004FF0000150E700BF90F0000F04BF0021D1
:10068000704730B54FF4806404F1320410F0004537
:1006900048BF40424FF000013EE700BF42004FEA32
:1006A000E2014FEA31014FEA02701FBF12F07F43AF
:1006B00093F07F4F81F06051704732F07F4208BF66
:1006C000704793F07F4F04BF41F40021704730B56D
:1006D0004FF4607401F0004521F000411CE700BFB9
:1006E00050EA010208BF704730B54FF000050AE03C
:1006F00050EA010208BF704730B511F0004502D53D
:10070000404261EB41014FF4806404F132045FEA3E
:10071000915C3FF4D8AE4FF003025FEADC0C18BFE7
:1007200003325FEADC0C18BF033202EBDC02C2F1D9
:10073000200300FA03FC20FA02F001FA03FE40EA6B
:100740000E0021FA02F11444BDE600BF4FEA410257
:10075000B2F1E04324BFB3F5001CDCF1FE5C0DD91F
:1007600001F0004C4FEAC0024CEA5070B2F1004F69
:1007700040EB830008BF20F00100704711F0804F6C
:1007800021D113F13872BCBF01F00040704741F431
:1007900080114FEA5252C2F11802C2F1200C10FA35
:1007A0000CF320FA02F018BF40F001004FEAC12319
:1007B0004FEAD32303FA0CFC40EA0C0023FA02F3BD
:1007C0004FEA4303CCE77FEA625307D150EA013393
:1007D0001EBF4FF0FE4040F44000704701F0004063
:1007E00040F0FE4040F40000704700BF80F0004041
:1007F00002E000BF81F0004142001FBF5FEA4103F9
:1008000092EA030F7FEA226C7FEA236C6AD04FEAF8
:100810001262D2EB1363C1BFD2184140484041403D
:10082000B8BF5B42192B88BF704710F0004F40F4EF
:10083000000020F07F4018BF404211F0004F41F40B
:10084000000121F07F4118BF494292EA030F3FD0D7
:10085000A2F1010241FA03FC10EB0C00C3F12003EA
:1008600001FA03F100F0004302D5494260EB400079
:10087000B0F5000F13D3B0F1807F06D340084FEAE4
:10088000310102F10102FE2A51D2B1F1004F40EBD9
:10089000C25008BF20F0010040EA03007047490041
:1008A00040EB0000013A28BFB0F5000FEDD2B0FADE
:1008B00080FCACF1080CB2EB0C0200FA0CF0AABF01
:1008C00000EBC25052421843BCBFD040184370479F
:1008D00092F0000F81F4000106BF80F400000132A5
:1008E000013BB5E74FEA41037FEA226C18BF7FEA7C
:1008F000236C21D092EA030F04D092F0000F08BFBE
:100900000846704790EA010F1CBF0020704712F0A4
:100910007F4F04D1400028BF40F00040704712F1E3
:1009200000723CBF00F50000704700F0004343F048
:10093000FE4040F4000070477FEA226216BF08467E
:100940007FEA23630146420206BF5FEA412390EA41
:10095000010F40F4800070474FF0000304E000BF37
:1009600010F0004348BF40425FEA000C08BF7047E8
:1009700043F0964301464FF000001CE050EA0102AC
:1009800008BF70474FF000030AE000BF50EA0102C1
:1009900008BF704711F0004302D5404261EB4101AE
:1009A0005FEA010C02BF84460146002043F0B643D3
:1009B00008BFA3F18053A3F50003BCFA8CF2083AF8
:1009C000A3EBC25310DB01FA02FC634400FA02FC01
:1009D000C2F12002BCF1004F20FA02F243EB020008
:1009E00008BF20F00100704702F1200201FA02FC6A
:1009F000C2F1200250EA4C0021FA02F243EB02005D
:100A000008BF20EADC7070474FEA4002B2F1FE4FA7
:100A10000FD34FF09E03B3EB12620DD94FEA0023C0
:100A200043F0004310F0004F23FA02F018BF404299
:100A300070474FF00000704712F1610F01D1420280
:100A400005D110F0004008BF6FF0004070474FF034
:100A50000000704780B483B000AF0346FB710D4ABD
:100A600097F907305B115BB252F82330FA7902F044
:100A70001F02012101FA02F21046064997F90720E8
:100A8000521152B2034341F8223000BF0C37BD4629
:100A900080BC704700E100E080B400AF0A4B1B68E7
:100AA000094A23F001031360074B1B68064A43F011
:100AB00002031360044B1B68034A43F004031360F2
:100AC00000BFBD4680BC704710E000E080B584B038
:100AD00000AF78601A4B1B68194A23F001031360BA
:100AE0000023FB607B68BB604FF4FA5000F02AF8EB
:100AF000134B1B68124A23F002031360104B1B6850
:100B00000F4A43F00103136010E000BF0C4B1B6859
:100B10001B0C03F00103002BF8D0094B1B68084A9B
:100B200043F480331360FB680133FB60FA68BB68F1
:100B30009A42EAD300BF00BF1037BD4680BD00BF58
:100B400010E000E080B483B000AF78607B68B3F160
:100B5000807F04D9064B4FF080725A6002E0044A4D
:100B60007B68536000BF0C37BD4680BC704700BF38
:100B700010E000E080B500AF094B1A68094B1B6814
:100B80009A4205D2064B1B680133054A136005E003
:100B9000034B00221A60044B1B68984700BF80BDBE
:100BA000A8000020B0000020AC00002080B485B078
:100BB00000AF78600023FB737B68002B02D1012318
:100BC000FB739DE07B685B7A002B02D0012B09D080
:100BD00015E07B681B681A687B681B6822F01002AE
:100BE0001A600CE07B681B681A687B681B6842F01F
:100BF00010021A607B681B6810221A6000BF7B68B5
:100C00001B7B002B02D0012B09D011E07B681B68F5
:100C10001A687B681B6842F480421A6008E07B68AF
:100C20001B681A687B681B6822F480421A6000BF48
:100C30007B681B7A002B0ED0012B16D17B681B7BA7
:100C4000002B11D07B681B681A687B681B6822F038
:100C500020021A6008E07B681B681A687B681B68C2
:100C600042F020021A6000E000BF7B685B7B002B33
:100C700002D0012B09D011E07B681B681A687B68E1
:100C80001B6842F080021A6008E07B681B681A68E3
:100C90007B681B6822F080021A6000BF7B689B7B28
:100CA000002B02D0012B09D011E07B681B681A6869
:100CB0007B681B6842F040021A6008E07B681B6892
:100CC0001A687B681B6822F040021A6000BF7B68CC
:100CD000DB7B002B02D0012B09D011E07B681B6865
:100CE0001A687B681B6842F002021A6008E07B68A1
:100CF0001B681A687B681B6822F002021A6000BF3A
:100D0000FB7B18461437BD4680BC704780B485B065
:100D100000AF786039600023FB733B68002B02D082
:100D20007B68002B02D10123FB7303E07B681B6807
:100D30003A689A60FB7B18461437BD4680BC704702
:100D400080B485B000AF786039600023FB733B68E6
:100D5000002B02D07B68002B02D10123FB7303E040
:100D60007B681B683A68DA60FB7B18461437BD461F
:100D700080BC704780B485B000AF78600023FB73FF
:100D80007B68002B02D10123FB7307E07B681B68A3
:100D90001A687B681B6842F001021A60FB7B1846E8
:100DA0001437BD4680BC704780B485B000AF786012
:100DB0000023FB737B68002B02D10123FB7307E048
:100DC0007B681B681A687B681B6822F001021A6046
:100DD000FB7B18461437BD4680BC704780B485B095
:100DE00000AF786039600023FB737B68002B02D171
:100DF0000123FB7303E07B681B683A685A60FB7B46
:100E000018461437BD4680BC7047000080B485B0DA
:100E100000AF786039600023FB737B68002B02D140
:100E20000123FB731BE07B681B68104A934211D0BF
:100E30000E4A934212D80E4A934203D00D4A93426F
:100E400004D00BE00C4A3B68136008E00B4A3B6897
:100E5000136004E00A4A3B68136000E000BFFB7BBC
:100E600018461437BD4680BC704700BF30000240B2
:100E7000080002401C000240B4000020C000002016
:100E8000B800002080B485B000AF78600023FB7309
:100E90007B68002B02D10123FB732AE07B681B686F
:100EA000174A93421BD0164A934221D8154A9342BF
:100EB00003D0154A934209D01AE07B685B685A68F0
:100EC0007B685B6842F002025A6012E07B685B68F4
:100ED0005A687B685B6842F020025A6009E07B68D0
:100EE0005B685A687B685B6842F400725A6000E095
:100EF00000BF00BF18461437BD4680BC704700BF16
:100F000030000240080002401C00024080B500AFE3
:100F1000024B1B68984700BF80BD00BFB400002093
:100F200080B500AF024B1B68984700BF80BD00BF73
:100F3000C000002080B500AF024B1B68984700BF7F
:100F400080BD00BFB800002080B500AF024B1B6819
:100F5000984700BF80BD00BFB800002080B400AF3C
:100F600000BFBD4680BC704780B400AF00BFBD4627
:100F700080BC704780B400AF00BFBD4680BC7047E6
:100F800080B400AF00BFBD4680BC704780B400AFE6
:100F900000BFBD4680BC704780B400AF00BFBD46F7
:100FA00080BC704790B589B002AF04460846114630
:100FB0001A462346FB710346BB710B467B711346F1
:100FC0007B80FB79FB75FB7D1F2B02D80023FB7117
:100FD00002E0FB7D203BFB7500233B7514E0FA7DAE
:100FE0003B7DC3F10500397D3C4C13465B00134447
:100FF0005B00234403441A7807F118030B4403F8F9
:101000000C2C3B7D01333B753B7D052BE7D9BB7930
:1010100098B27B7999B23B8D1A46520013445B001B
:101020009AB23B8DDB009CB2BB8D0093234600F04F
:1010300075FD00237B7548E00023BB753FE07B7D99
:1010400007F11802134413F80C3C1A46BB7D42FA10
:1010500003F303F00103002B2ED03B8D012B10D1A5
:10106000BB799AB27B7D9BB2134498B27B799AB2DA
:10107000BB7D9BB213449BB27A88194600F096FC64
:101080001AE0BB799AB27B7D9BB2398D01FB03F3E9
:101090009BB2134498B27B799AB2BB7D9BB2398DD7
:1010A00001FB03F39BB2134499B23C8D3A8D7B88CC
:1010B0000093234600F032FDBB7D0133BB75BB7D41
:1010C000072BBCD97B7D01337B757B7D052BB3D989
:1010D00000BF00BF1C37BD4690BD00BFE83200080E
:1010E0000EB480B585B000AF786007F12003FB60D7
:1010F000FA68F969786801F0BBFC00BF1437BD4697
:10110000BDE8804003B0704790B587B002AF78600B
:10111000084611461A460346FB700B46BB70134641
:101120003B807868FFF724F80346013BFB601AE038
:10113000FB687A68134418783C88BA78F978BB8CD5
:1011400001933B8C00932346FFF72CFF3B8CDBB2D3
:101150001A46520013445B00DAB2FB781344FB706A
:10116000FB68013BFB60FB68002BE1DA00BF00BFBE
:101170001437BD4690BD000080B500AF5E4B5F4A9E
:101180001A605D4B00221A715B4B00225A745A4B55
:1011900000229A71584B0022DA71574B00225A7183
:1011A000554B02221A75544B00225A75524B00229D
:1011B0009A75514B01221A744F4B0022DA754E4B2F
:1011C00001221A764C4B00229A744B4B0122DA749E
:1011D0004B4B4C4A1A604A4B07221A71484B022269
:1011E0005A71474B05229A71454800F0F3FC464B73
:1011F000444A1A60444B05221A71434B02225A7129
:10120000414B05229A71404800F0E4FC3F4B3D4AB7
:101210001A603E4B03221A713C4B02225A713B4B1F
:1012200003229A71394800F0D5FC394B354A1A60CF
:10123000374B02221A71364B02225A71344B032269
:101240009A71334800F0C6FC324B2E4A1A60314B7B
:1012500008221A712F4B02225A712E4B03229A71C7
:101260002C4800F0B7FC2C4B2C4A1A602A4B2C4A15
:101270005A60294B01221A73274B01221A72264BFE
:1012800001225A72244B00229A72234B0022DA72F6
:10129000214B00225A73204B01229A731E4B0022CD
:1012A000DA73154B1C4A9A60134B9B681846FFF77C
:1012B0007DFC114B9B681B491846FFF7A7FD0E48A4
:1012C00000F0E2FE184B4FF080421A60164B0022ED
:1012D0001A73154B01225A60134B08229A60134966
:1012E000114801F049F9104801F0B8F80021074809
:1012F00000F092FE00BF80BD0001002000300140E0
:10130000F000002000080140F80000201C0100202F
:10131000E8000020E0000020D00000203000024063
:1013200000000240E91300081C030020CD13000850
:1013300080B500AF054B00221A60054B1B680022E8
:101340005A62034801F0E4F800BF80BD900000201D
:101350001C0300200000000098B500AF184801F001
:10136000F1F8184B1B681846FFF7F6FA0446144BC1
:101370001B685B6A1846FFF76FF90FA3D3E90023D8
:10138000FEF7FEFE02460B4610461946FFF7DEF951
:10139000034619462046FFF72FFA03461A460A4B22
:1013A0001B6819461046FFF727FA03461A46064BF4
:1013B0001A6000BF98BD00BFFCA9F1D24D62503F3A
:1013C0001C030020900000209400002080B400AF97
:1013D000044B1B680133034A136000BFBD4680BC49
:1013E000704700BF9000002080B500AF134B9B6892
:1013F0001846FFF7D9FC114B9B681846FFF742FDD2
:101400000F4B1A680F4B1B689A420CD20E4B1B688D
:101410001A460E49094800F0F4FF094B1B680133D6
:10142000074A136008E0064B00221A6001210848B1
:1014300000F0F2FDFFF790FF00BF80BD000100202B
:10144000880000208C00002084000020280100205B
:101450001C01002080B483B000AF084B1B687B6088
:10146000064B4FF000021A60054B00221A607B68A1
:1014700018460C37BD4680BC704700BF9400002062
:101480009000002080B582B000AF0346FB71FB1DC9
:1014900001221946034800F067FF00BF0837BD4628
:1014A00080BD00BF0001002080B582B000AF0346C0
:1014B000FB710021094800F0AFFD0021084800F051
:1014C000ABFDFB791846FFF7DDFF0121034800F073
:1014D000A3FD00BF0837BD4680BD00BF1C01002032
:1014E000E800002080B582B000AF0346FB71002108
:1014F000094800F091FD0121084800F08DFDFB79BD
:101500001846FFF7BFFF0121034800F085FD00BF2B
:101510000837BD4680BD00BF1C010020E800002048
:1015200090B583B000AF0446084611461A462346DC
:10153000FB800346BB800B467B8013463B802A2002
:10154000FFF7B2FFFB881B0A9BB2DBB21846FFF71E
:10155000C9FFFB88DBB21846FFF7C4FF7B881B0A74
:101560009BB2DBB21846FFF7BDFF7B88DBB21846A3
:10157000FFF7B8FF2B20FFF797FFBB881B0A9BB232
:10158000DBB21846FFF7AEFFBB88DBB21846FFF7A9
:10159000A9FF3B881B0A9BB2DBB21846FFF7A2FFEC
:1015A0003B88DBB21846FFF79DFF2C20FFF77CFF3E
:1015B00000BF0C37BD4690BD80B500AF0021094883
:1015C00000F02AFDC820FFF781FA0021064800F04C
:1015D00023FDC820FFF77AFA0121024800F01CFD24
:1015E00000BF80BDE00000201C01002080B584B059
:1015F00000AF0346FB71FB79FB733620FFF754FF06
:101600000120FFF763FAFB7B032B37D801A252F8C6
:1016100023F000BF251600083B16000851160008ED
:10162000671600084820FFF75DFF174BF0221A806D
:10163000164B4FF4A0721A8021E02820FFF752FFCA
:10164000114B4FF4A0721A80104BF0221A8016E052
:101650008820FFF747FF0C4BF0221A800B4B4FF40A
:10166000A0721A800BE0E820FFF73CFF064B4FF416
:10167000A0721A80054BF0221A8000E000BF00BF64
:101680001037BD4680BD00BF0200002000000020D2
:1016900080B500AF0121024800F0BEFC00BF80BD54
:1016A000E000002080B500AFFFF766FDFFF7F0FF18
:1016B000FFF782FF0120FFF7F7FE4FF47A70FFF784
:1016C00005FACB20FFF7F0FE3920FFF70BFF2C20A7
:1016D000FFF708FF0020FFF705FF3420FFF702FFA8
:1016E0000220FFF7FFFECF20FFF7DEFE0020FFF70E
:1016F000F9FEC120FFF7F6FE3020FFF7F3FEE820E9
:10170000FFF7D2FE8520FFF7EDFE0020FFF7EAFE8F
:101710007820FFF7E7FEEA20FFF7C6FE0020FFF77C
:10172000E1FE0020FFF7DEFEED20FFF7BDFE6420A6
:10173000FFF7D8FE0320FFF7D5FE1220FFF7D2FEF9
:101740008120FFF7CFFEF720FFF7AEFE2020FFF746
:10175000C9FEC020FFF7A8FE2320FFF7C3FEC1206B
:10176000FFF7A2FE1020FFF7BDFEC520FFF79CFE8D
:101770003E20FFF7B7FE2820FFF7B4FEC720FFF793
:1017800093FE8620FFF7AEFE3620FFF78DFE482041
:10179000FFF7A8FE3A20FFF787FE5520FFF7A2FECD
:1017A000B120FFF781FE0020FFF79CFE1820FFF715
:1017B00099FEB620FFF778FE0820FFF793FE8220FF
:1017C000FFF790FE2720FFF78DFEF220FFF76CFE5B
:1017D0000020FFF787FE2620FFF766FE0120FFF7B7
:1017E00081FEE020FFF760FE0F20FFF77BFE312037
:1017F000FFF778FE2B20FFF775FE0C20FFF772FE37
:101800000E20FFF76FFE0820FFF76CFE4E20FFF75B
:1018100069FEF120FFF766FE3720FFF763FE072021
:10182000FFF760FE1020FFF75DFE0320FFF75AFE72
:101830000E20FFF757FE0920FFF754FE0020FFF7A8
:1018400051FEE120FFF730FE0020FFF74BFE0E2097
:10185000FFF748FE1420FFF745FE0320FFF742FE86
:101860001120FFF73FFE0720FFF73CFE3120FFF776
:1018700039FEC120FFF736FE4820FFF733FE08206F
:10188000FFF730FE0F20FFF72DFE0C20FFF72AFE9A
:101890003120FFF727FE3620FFF724FE0F20FFF749
:1018A00021FE1120FFF700FE7820FFF70FF9292015
:1018B000FFF7FAFD0020FFF799FE00BF80BD000092
:1018C00080B588B000AF03463960FB800121314804
:1018D00000F0A2FB0021304800F09EFB3B685B005B
:1018E000B3F5FA7F03D22D4A3B68136003E02B4B1C
:1018F0004FF4FA721A60FB881B0A9BB2FB75002337
:10190000FB610DE0264AFB691344FA7D1A70FB69FE
:101910000133FA88D1B2224AD154FB690233FB6108
:101920001E4B1B68FA699A42ECD33B685B003B6133
:101930001A4B1B683A69B2FBF3F31A4A1360174B50
:101940001A683B69B3FBF2F102FB01F29B1AFB60E0
:10195000FFF7EEFC134B1B68002B11D00023BB617B
:1019600009E00E4B1B681A460D490F4800F0FCFCBD
:10197000BB690133BB610B4B1B68BA699A42F0D358
:10198000FFF7EAFC0121044800F046FB00BF2037C6
:10199000BD4680BDE80000201C010020840000201E
:1019A000280100208C0000200001002080B586B0B6
:1019B00000AF0346FB800B46BB8013467B80524B37
:1019C0001B889BB2FA889A4280F09A804F4B1B8802
:1019D0009BB2BA889A4280F0938000214C4800F074
:1019E0001BFB00214B4800F017FB2A20FFF74AFDA4
:1019F0000121474800F010FB0121464800F00CFB94
:101A00000021444800F008FBFB881B0A9BB2DBB2B4
:101A10003B75FB88DBB27B75FB8801331B12DBB2A5
:101A2000BB75FB88DBB20133DBB2FB7507F1140336
:101A300004221946384800F097FC0121354800F08F
:101A4000EBFA0021324800F0E7FA0021314800F0BB
:101A5000E3FA2B20FFF716FD01212D4800F0DCFAF8
:101A600001212C4800F0D8FA00212A4800F0D4FACD
:101A7000BB881B0A9BB2DBB23B74BB88DBB27B74B6
:101A8000BB8801331B12DBB2BB74BB88DBB20133F2
:101A9000DBB2FB7407F11003042219461E4800F064
:101AA00063FC01211B4800F0B7FA0021184800F040
:101AB000B3FA0021174800F0AFFA2C20FFF7E2FC40
:101AC0000121134800F0A8FA0121124800F0A4FAFD
:101AD0000021104800F0A0FA7B881B0A9BB2DBB201
:101AE0003B737B88DBB27B7307F10C030222194640
:101AF000094800F039FC0121064800F08DFA00E0A9
:101B000000BF1837BD4680BD020000200000002045
:101B1000E80000201C0100200001002090B583B0E7
:101B200000AF0446084611461A462346FB8003468A
:101B3000BB800B467B8013463B80244B1B889BB2AB
:101B4000FA889A423DD2224B1B889BB2BA889A42AD
:101B500037D2FA887B8813441C4A128892B2934287
:101B600005DD1A4B1B889AB2FB88D31A7B80BA8892
:101B70003B881344164A128892B2934205DD144BF7
:101B80001B889AB2BB88D31A3B80FA887B8813449F
:101B90009BB2013B9CB2BA883B8813449BB2013B89
:101BA0009BB2B988F8882246FFF7BAFC3B887A884E
:101BB00002FB03F31A463B8B11461846FFF780FEE3
:101BC00000E000BF0C37BD4690BD00BF0200002002
:101BD0000000002080B485B000AF78600023FB7364
:101BE0007B68002B02D10123FB730EE27B681B791B
:101BF000072B00F2FD807B685B79032B76D801A26E
:101C000052F823F0151C00084B1C0008811C00082A
:101C1000B71C00087B681B6819687B681B799B00F0
:101C20000F2202FA03F3DA437B681B680A401A604A
:101C30007B681B6819687B681B799B0004229A40AB
:101C40007B681B680A431A6053E07B681B6819684D
:101C50007B681B799B000F2202FA03F3DA437B684F
:101C60001B680A401A607B681B6819687B681B79CF
:101C70009B0001229A407B681B680A431A6038E087
:101C80007B681B6819687B681B799B000F2202FA2E
:101C900003F3DA437B681B680A401A607B681B68A1
:101CA00019687B681B799B0002229A407B681B683D
:101CB0000A431A601DE07B681B6819687B681B7902
:101CC0009B000F2202FA03F3DA437B681B680A4089
:101CD0001A607B681B6819687B681B799B0003226C
:101CE0009A407B681B680A431A6002E00123FB7379
:101CF00000BF7B689B79062B77D801A252F823F0AE
:101D00001D1D00083D1D0008771D00081D1D000851
:101D10003D1D0008771D0008B11D00087B681B6889
:101D200019687B681B799B000233032202FA03F3D4
:101D3000DA437B681B680A401A6066E17B681B68AF
:101D400019687B681B799B000233032202FA03F3B4
:101D5000DA437B681B680A401A607B681B68196855
:101D60007B681B799B00023301229A407B681B68C9
:101D70000A431A6049E17B681B6819687B681B7914
:101D80009B000233032202FA03F3DA437B681B68E9
:101D90000A401A607B681B6819687B681B799B0086
:101DA000023302229A407B681B680A431A602CE1C6
:101DB0007B681B6819687B681B799B0002330322D0
:101DC00002FA03F3DA437B681B680A401A607B68F7
:101DD0001B6819687B681B799B00023303229A40B9
:101DE0007B681B680A431A600FE10123FB730CE157
:101DF0007B685B79032B7FD801A252F823F000BFE8
:101E0000111E00084B1E0008851E0008BF1E00089A
:101E10007B681B6859687B681B79083B9B000F2215
:101E200002FA03F3DA437B681B680A405A607B6856
:101E30001B6859687B681B79083B9B0004229A4009
:101E40007B681B680A435A6059E07B681B685968C5
:101E50007B681B79083B9B000F2202FA03F3DA43ED
:101E60007B681B680A405A607B681B6859687B68FE
:101E70001B79083B9B0001229A407B681B680A4340
:101E80005A603CE07B681B6859687B681B79083B9B
:101E90009B000F2202FA03F3DA437B681B680A40B7
:101EA0005A607B681B6859687B681B79083B9B00FC
:101EB00002229A407B681B680A435A601FE07B68D5
:101EC0001B6859687B681B79083B9B000F2202FA4C
:101ED00003F3DA437B681B680A405A607B681B681F
:101EE00059687B681B79083B9B0003229A407B68FA
:101EF0001B680A435A6002E00123FB7300BF7B6842
:101F00009B79062B7ED801A252F823F0291F0008E6
:101F10004B1F0008891F0008291F00084B1F0008DD
:101F2000891F0008C71F00087B681B6859687B6809
:101F30001B79083B9B000233032202FA03F3DA43C6
:101F40007B681B680A405A605FE07B681B685968C1
:101F50007B681B79083B9B000233032202FA03F3E0
:101F6000DA437B681B680A405A607B681B685968C3
:101F70007B681B79083B9B00023301229A407B68F7
:101F80001B680A435A6040E07B681B6859687B689D
:101F90001B79083B9B000233032202FA03F3DA4366
:101FA0007B681B680A405A607B681B6859687B68BD
:101FB0001B79083B9B00023302229A407B681B6816
:101FC0000A435A6021E07B681B6859687B681B796B
:101FD000083B9B000233032202FA03F3DA437B68D7
:101FE0001B680A405A607B681B6859687B681B79CC
:101FF000083B9B00023303229A407B681B680A431C
:102000005A6002E00123FB7300BFFB7B18461437C4
:10201000BD4680BC704700BF80B485B000AF78601B
:102020000B46FB700023FB737B68002B02D101235E
:10203000FB7323E0FB78002B0DD17B681B6859698B
:102040007B681B791A46012303FA02F27B681B683E
:102050000A435A6112E0FB78012B0DD17B681B68A3
:1020600019697B681B791A46012303FA02F27B681F
:102070001B680A431A6101E00123FB73FB7B1846CE
:102080001437BD4680BC704780B485B000AF78601F
:102090000023FB737B68002B02D10123FB735CE1FF
:1020A0007B681B7D012B08D17B681B681A687B68E5
:1020B0001B6822F400721A6023E07B681B7D002BF2
:1020C00008D17B681B681A687B681B6842F4007241
:1020D0001A6016E07B681B7D022B10D17B681B68A1
:1020E0001A687B681B6842F400721A607B681B6880
:1020F0001A687B681B6842F480721A6001E0012351
:10210000FB737B681B79002B08D17B681B681A68FE
:102110007B681B6842F004021A600EE07B681B7942
:10212000012B08D17B681B681A687B681B6822F04A
:1021300004021A6001E00123FB737B685B7D012BC5
:1021400008D17B681B681A687B681B6842F40042F0
:102150001A600EE07B685B7D002B08D17B681B68F2
:102160001A687B681B6822F400421A6001E00123B0
:10217000FB737B685B7C002B08D17B681B681A684B
:102180007B681B6822F400621A600EE07B685B7C4F
:10219000012B08D17B681B681A687B681B6842F4B6
:1021A00000621A6001E00123FB737B689B79002BBE
:1021B00008D17B681B681A687B681B6822F00202E2
:1021C0001A600EE07B689B79012B08D17B681B6845
:1021D0001A687B681B6842F002021A6001E0012362
:1021E000FB737B68DB79002B08D17B681B681A685E
:1021F0007B681B6822F001021A600EE07B68DB79C5
:10220000012B08D17B681B681A687B681B6842F049
:1022100001021A6001E00123FB737B689B7C002BA9
:1022200008D17B681B685A687B681B6842F0020211
:102230005A6007E07B681B685A687B681B6822F05D
:1022400002025A607B68DB7C002B08D17B681B682C
:102250005A687B681B6842F001025A6007E07B689D
:102260001B685A687B681B6822F001025A607B6811
:102270005B79072B66D801A252F823F09D22000853
:10228000AF220008C5220008DB220008F122000866
:10229000072300081D230008332300087B681B6800
:1022A0001A687B681B6822F038021A604DE07B6870
:1022B0001B681B6823F038027B681B6842F0080229
:1022C0001A6042E07B681B681B6823F038027B6859
:1022D0001B6842F010021A6037E07B681B681B68BD
:1022E00023F038027B681B6842F018021A602CE069
:1022F0007B681B681B6823F038027B681B6842F010
:1023000020021A6021E07B681B681B6823F03802FA
:102310007B681B6842F028021A6016E07B681B6825
:102320001B6823F038027B681B6842F030021A6099
:102330000BE07B681B681A687B681B6842F03802F8
:102340001A6002E00123FB7300BF7B681B681A68F8
:102350007B681B6842F040021A60FB7B184614370A
:10236000BD4680BC704700BF80B487B000AFF86046
:10237000B9607A600023FB75FB68002B02D0BB6854
:10238000002B02D10123FB7535E000233B61FB6884
:102390005B7C002B2BD112E000BFFB681B689B68A5
:1023A0005B0803F00103002BF7D0BA683B691344C4
:1023B0001A78FB681B68DA603B6901333B613A6954
:1023C0007B689A42E8D316E000BFFB681B689B68F5
:1023D0005B0803F00103002BF7D0BA683B69134494
:1023E0001A78FB681B68DA603B6901333B613A6924
:1023F0007B689A42E8D3FB7D18461C37BD4680BCFB
:10240000704780B586B000AFF860B9607A6000238D
:10241000FB75FB68002B02D10123FB7519E0FB68FB
:102420009B68B9681846FEF78BFCFB689A68FB68E6
:102430001B680C3319461046FEF768FCFB689B6866
:1024400079681846FEF7CAFCFB689B681846FEF7D9
:1024500091FCFB7D18461837BD4680BD80B485B021
:1024600000AF78600023FB737B68002B02D101234F
:10247000FB7341E07B681B681A687B681B6842F04D
:1024800004021A607B681B681A687B681B6842F04C
:1024900080021A607B681B684FF47A72DA627B688C
:1024A0001B68B3F1804F03D0164A934205D009E070
:1024B0007B685B68144A136004E07B685B68134ABE
:1024C000136000BF7B681B687A6892689A627B68B9
:1024D0001B7B002B08D17B681B68DA687B681B6854
:1024E00042F00102DA6007E07B681B68DA687B680B
:1024F0001B6822F00102DA60FB7B18461437BD46E8
:1025000080BC7047000400403403002030030020EA
:1025100080B485B000AF78600023FB737B68002B2C
:1025200002D10123FB7307E07B681B681A687B6894
:102530001B6842F001021A6000BF18461437BD46FE
:1025400080BC704780B485B000AF78600023FB7317
:102550007B68002B02D10123FB7307E07B681B68BB
:102560001A687B681B6822F001021A6000BF1846D7
:102570001437BD4680BC704780B485B000AF78602A
:1025800039600023FB737B68002B02D10123FB73AE
:1025900002E0044A3B681360FB7B18461437BD46D3
:1025A00080BC70472401002080B582B000AF4FF09E
:1025B00080431B684FF0804223F0010313604FF00B
:1025C00080431B694FF0804223F0010313614FF0F9
:1025D00080435B6A7B600F4B1A680F4B1B689A4203
:1025E00005D20C4B1B6801330A4A136005E00B4B04
:1025F0001B689847074B00221A604FF080431B6806
:102600004FF0804243F00103136000BF0837BD461E
:1026100080BD00BF9800002034030020240100206A
:1026200080B58AB002AF00F09DF8FFF73BF80623B3
:10263000FB774A4BBB610D20FEF70CFA1C20FEF71E
:1026400009FA47F6E033009314238022002100208A
:10265000FFF764FA3220FEF739FA47F6E0330093C9
:102660001423802228210020FFF758FA3220FEF799
:102670002DFA47F6E03300931423802250210020E6
:10268000FFF74CFA3220FEF721FA47F6E0330093C9
:102690001423802278210020FFF740FA3220FEF731
:1026A00015FA4FF6205300931423802214210020A2
:1026B000FFF734FA3220FEF709FA4FF62053009361
:1026C000142380223C210020FFF728FA3220FEF755
:1026D000FDF94FF62053009314238022642100203B
:1026E000FFF71CFA3220FEF7F1F94FF62053009362
:1026F000142380228C210020FFF710FAC820FEF757
:10270000E5F9FEF7A7FEB8613220FEF7DFF94FF6D4
:10271000FF730093A023802200210020FFF7FEF921
:102720003220FEF7D3F9B869FEF76EF902463B1D79
:102730000B491846FEF7D4FC381D4FF6FF73019382
:102740000123009300230A220A21FEF7DDFC4FF447
:10275000FA60FEF7BBF9FEF77DFE72E70000B040BD
:10276000D032000880B500AFFEF796F95D4B9B694B
:102770005C4A43F0040393615A4B9B69594A43F006
:1027800008039361574B9B69564A43F48053936106
:10279000544B5B69534A43F001035361514BDB696E
:1027A000504A43F00103D3614F4B504A1A604E4BDD
:1027B00000221A714C4B02225A714B4B03229A7120
:1027C0004948FFF707FA474BDB69464A43F4804321
:1027D000D361474B474A1A60454B01221A71444B5B
:1027E00000225A74424B00229A71414B0022DA7146
:1027F0003F4B00225A713E4B01221A753C4B00227E
:102800005A753B4B00229A75394B01221A74384B8A
:102810000022DA75364B01221A76354B01229A7462
:10282000334B0022DA74344B344A1A60324B0F2295
:102830001A71314B00225A712F4B01229A712E4886
:10284000FFF7C8F92E4B2D4A1A602D4B0E221A7134
:102850002B4B02225A712A4B05229A712848FFF706
:10286000B9F9284B254A1A60264B0D221A71254BBF
:1028700000225A71234B01229A712248FFF7AAF9CC
:10288000214B1E4A1A60204B0C221A711E4B00224B
:102890005A711D4B01229A711B48FFF79BF91B4B84
:1028A0001B4A1A60194B01221A73184B01221A7223
:1028B000164B00225A72154B00229A72134B0022BB
:1028C000DA72124B00225A73104B01229A730F4B8B
:1028D0000022DA73064B0D4ADA600548FFF7D4FB95
:1028E00000BF80BD00100240A4030020000801408A
:1028F000580300200038004048030020000C01402D
:1029000074030020B4030020CC030020BC0300208B
:102910004400024080B400AF044BDB68034A43F03C
:102920000103D36000BFBD4680BC70470008014072
:1029300080B586B000AF7860144A154BD31A7B611E
:102940007B693B61134B1B68002B02D1114B124A70
:102950001A60104B1A687B6813443A699A4207D28E
:1029600000F046F803460C221A604FF0FF3309E0EE
:10297000084B1B68FB60074B1A687B681344054AC9
:102980001360FB6818461837BD4680BD002800203C
:10299000000400009C000020000400200D48854633
:1029A000AFF300800C480D490D4A002302E0D458D3
:1029B000C4500433C4188C42F9D30A4A0A4C002389
:1029C00001E013600432A242FBD300F017F8FFF7D6
:1029D00027FEFEE7002800200000002068000020FD
:1029E000643500086800002000040020FEE70000B5
:1029F000014B1868704700BF0400002070B5002626
:102A00000C4D0D4C641BA410A64209D100F054FCDF
:102A100000260A4D0A4C641BA410A64205D170BDC5
:102A200055F8043B98470136EEE755F8043B9847C4
:102A30000136F2E75C3500085C3500085C350008BB
:102A40006035000800B59BB0009104916FF0004123
:102A50000591029105490391694600F06FF8002243
:102A6000009B1A701BB05DF804FB00BF0802FFFF5B
:102A700013460A46014602480068FFF7E3BF00BF5D
:102A8000040000202DE9F0478E6882469E420C46E5
:102A900090461F4638D88A8912F4906F32D0256844
:102AA00009690133A5EB010965694B4405EB45054F
:102AB00005EBD5756D109D4238BF1D46530531D5C8
:102AC000294600F053FB064650B90C234FF0FF3067
:102AD000CAF80030A38943F04003A381BDE8F08722
:102AE0004A46216900F0CEFAA38923F4906343F0AB
:102AF0008003A38126614E4426603E466561A5EBB6
:102B00000905A560BE4200D93E46324641462068CE
:102B100000F0C6FAA36822689B1B32440020A36021
:102B20002260DBE72A4600F07BFB06460028E1D165
:102B30005046216900F0CEFAC7E700002DE9F04FBA
:102B400098468B8907461B060D4614469DB00ED548
:102B50000B6963B9402100F009FB2860286120B9A6
:102B60000C233B604FF0FF30D1E040236B6100232A
:102B7000099320238DF8293030234FF00109CDF837
:102B80000C80DFF8A4818DF82A3023469A4613F88A
:102B9000012B0AB1252AF9D1BAEB040B0BD05B4605
:102BA000224629463846FFF76DFF013000F0AA8023
:102BB000099A5A4409929AF80030002B00F0A2803A
:102BC00000234FF0FF32CDE905230AF1010A0493F7
:102BD00007938DF853301A935446052214F8011BBD
:102BE000514800F041FA049AD8B9D00644BF2023D6
:102BF0008DF85330110744BF2B238DF853309AF8CA
:102C000000302A2B15D0544600204FF00A0C079AAA
:102C1000214611F8013B303B092B4ED9B0B1079248
:102C200014E0A0EB080309FA03F31343A24604934C
:102C3000D2E7039B191D1B680391002BBBBF5B42AE
:102C400042F0020207930793B8BF049223782E2B19
:102C50000CD163782A2B35D1039B02341A1D1B68D3
:102C60000392002BB8BF4FF0FF330593DFF8C8A0E5
:102C700003225046217800F0F7F940B14023A0EB41
:102C80000A0003FA00F0049B01340343049314F890
:102C9000011B062225488DF8281000F0E5F90028D0
:102CA00038D0234B1BBB039B073323F007030833A8
:102CB0000393099B3344099367E70C4601200CFBFF
:102CC0000232A5E700234FF00A0C194601340593A0
:102CD000204610F8012B303A092A03D9002BC5D021
:102CE0000591C3E7044601230CFB0121F0E703AB88
:102CF00000932A4638460F4B04A9AFF30080421CCC
:102D00000646D6D1AB895B063FF52CAF09981DB0BE
:102D1000BDE8F08F03AB00932A463846054B04A963
:102D200000F07CF8EBE700BF2835000832350008DA
:102D300000000000852A00082E3500082DE9F04724
:102D4000164699468A680B6907469342B8BF1346F0
:102D5000336091F843200C46DDF820800AB101333E
:102D600033602368990642BF3368023333602568B5
:102D700015F0060506D104F1190AE36832689B1ABA
:102D8000AB4228DC94F84320131E226818BF0123AD
:102D900092062DD44946384604F14302C04701301B
:102DA00020D02368E56803F00603042B18BF002534
:102DB00032684FF00006A36808BFAD1A226908BF49
:102DC00025EAE5759342C4BF9B1AED181A34B54243
:102DD0001AD1002008E00123524649463846C04730
:102DE000013003D14FF0FF30BDE8F0870135C4E773
:102DF0003020E11881F843005A1C94F84510224411
:102E0000023382F84310C5E701232246494638467B
:102E1000C0470130E6D00136D9E700002DE9FF4771
:102E20000C46277E9146782F80469A460C9904F1ED
:102E3000430207D8622F0AD8002F00F0D980582FFC
:102E400000F0A48004F1420684F842703AE0A7F151
:102E50006303152BF6D801A050F823F0B52E000817
:102E6000C92E0008452E0008452E0008452E0008F2
:102E7000452E0008C92E0008452E0008452E0008E2
:102E8000452E0008452E0008D72F0008F92E00080F
:102E9000B92F0008452E0008452E0008F92F00081C
:102EA000452E0008F92E0008452E0008452E000882
:102EB000C12F00080B6804F142061A1D1B680A6046
:102EC00084F842300123A4E0256808682E0600F14A
:102ED00004030AD505680B60002D03DA2D236D422B
:102EE00084F843300A235E4819E015F0400F056866
:102EF0000B6018BF2DB2EFE70B682568181D08603E
:102F0000280601D51D6802E06906FBD51D886F2FD4
:102F10000CBF08230A235248002184F84310666836
:102F2000002EA8BF2168A660A4BF21F00401216083
:102F30000DB9002E4DD01646B5FBF3F103FB11572A
:102F4000C75D06F8017D2F46BB420D46F4D9082B1C
:102F50000BD12368DF0708D5236961689942DEBF7A
:102F6000302306F8013C06F1FF36921B22614B46E6
:102F700021464046CDF800A003AAFFF7DFFE01304E
:102F80004CD14FF0FF3004B0BDE8F087344884F8EE
:102F900045700E68236856F8045B1F060E6014D552
:102FA000D90744BF43F0200323601DB9236823F0F1
:102FB000200323601023AFE7236843F0200323603E
:102FC0007823284884F84530E3E75E0648BFADB271
:102FD000E6E71646BBE70B6826681D1D60690D60B5
:102FE00035061B6801D5186002E07106FBD5188014
:102FF000002316462361BAE70B681A1D0A601E6893
:1030000000213046626800F02FF808B1801B606034
:1030100063682361002384F84330A8E732464946B9
:1030200040462369D0470130ABD023689B0713D4B7
:10303000E068039B9842B8BF1846A4E701233246D4
:1030400049464046D04701309BD00135E36803999B
:103050005B1AAB42F2DCEBE7002504F11906F5E759
:10306000393500084A350008034610B5C9B2024494
:103070009342184601D1002003E0047801338C42CA
:10308000F6D110BD0A44914200F1FF3300D17047E0
:1030900010B511F8014B914203F8014FF9D110BD61
:1030A000884210B501EB020402D98442234607D8B6
:1030B000431EA14208D011F8012B03F8012FF8E7B5
:1030C000014602448A4200D110BD13F8014D02F8B6
:1030D000014DF7E738B50546002943D051F8043CC7
:1030E0000C1F002BB8BFE41800F0D0F81E4A13687C
:1030F000104633B9636014602846BDE8384000F0DC
:10310000CBB8A3420AD921686218934201BF1A685A
:103110005B685218226063600460EDE71A465B68E2
:103120000BB1A342FAD911685018A0420BD1206804
:103130000144501883421160DED118685B68014475
:1031400011605360D8E702D90C232B60D4E72068C4
:1031500021188B4201BF19685B6809182160636000
:103160005460C9E738BD00BFA0000020F8B5CD1CF1
:1031700025F0030508350C2D38BF0C25002D06461B
:1031800001DBA94203D90C2333600020F8BD00F015
:103190007DF821490A6814469CB9204F3B6823B941
:1031A0002146304600F062F838602946304600F08B
:1031B0005DF8431C23D10C233046336000F06CF8DB
:1031C000E3E723685B1B17D40B2B03D923601C4454
:1031D000256004E06368A2420CBF0B605360304678
:1031E00000F05AF804F10B00231D20F00700C21A6A
:1031F000CCD01B1AA350C9E722466468CCE7C41C94
:1032000024F00304A042E3D0211A304600F02EF847
:103210000130DDD1CFE700BFA0000020A4000020D6
:10322000F8B5074614460E4621B91146BDE8F840E8
:10323000FFF79CBF22B9FFF74DFF25462846F8BD92
:1032400000F030F8A0420FD221463846FFF78EFF3B
:1032500005460028F2D031462246FFF713FF3146DB
:103260003846FFF737FFE9E73546E7E738B500238B
:10327000054D044608462B60FFF75AFB431C02D15C
:103280002B6803B1236038BDF0030020014800F033
:1032900011B800BFF8030020014800F00CB800BFCF
:1032A000F803002051F8043C181F002BBCBF0B583A
:1032B000C018704770477047F8B500BFF8BC08BC2D
:1032C0009E467047F8B500BFF8BC08BC9E467047E4
:1032D000546F74616C2074696D65207370656E74D1
:1032E0002025646D730000000000000000005C00F9
:1032F00000000000060006000000287C287C280052
:103300005C54FE5474004420100844002854542097
:10331000500006000000000038440000000044385F
:103320000000000002070200000010107C101000D6
:10333000C00000000000101010101000400000003D
:10334000000060100C0000007C64544C7C00487C41
:1033500040000000645454544800445454546C00D9
:103360003C20702020005C54545424007C5454545D
:103370007400040464140C007C5454547C005C54A9
:1033800054547C00440000000000C4000000000011
:10339000102844000000282828282800442810006D
:1033A00000000804540800007C4454545C007C2451
:1033B00024247C007C5454546C007C4444444400D9
:1033C0007C44444438007C54545444007C14141409
:1033D00004007C44445474007C1010107C0044446D
:1033E0007C444400604040447C007C101028440031
:1033F0007C40404040007C0810087C007C08102085
:103400007C003844444438007C14141408003C24E4
:1034100064243C007C14141468005C5454547400FC
:1034200004047C0404007C4040407C000C304030AC
:103430000C003C4030403C004428102844000C1054
:1034400060100C004464544C44007C4400000000B4
:103450000C1060000000447C00000000000100012E
:1034600000004040404040400001000000007C243B
:1034700024247C007C5454546C007C444444440018
:103480007C44444438007C54545444007C14141448
:1034900004007C44445474007C1010107C004444AC
:1034A0007C444400604040447C007C101028440070
:1034B0007C40404040007C0810087C007C081020C4
:1034C0007C003844444438007C14141408003C2424
:1034D00064243C007C14141468005C54545474003C
:1034E00004047C0404007C4040407C000C304030EC
:1034F0000C003C4030403C004428102844000C1094
:1035000060100C004464544C4400107C44000000E3
:103510006C0000000000447C100000000201020169
:103520000000000000000000232D302B2000686CFC
:103530004C006566674546470030313233343536D6
:10354000373839414243444546003031323334350F
:0C3550003637383961626364656600003C
:04355C00550100080D
:04356000310100082D
:10356400A00080000800002000000000000000000F
:103574000000000000000000000000000000000047
:103584000000000000000000000000000000000037
:103594000000000000000000000000000000000027
:1035A4000000000000000000000000000000000017
:1035B4000000000000000000000000000000000007
:0835C4000000000000000000FF
:040000050800299D29
:00000001FF
