:020000040800F2
:1000000000280020990F0008E90F0008E90F0008F8
:10001000E90F0008E90F0008E90F000800000000E0
:10002000000000000000000000000000E90F0008D0
:10003000E90F000800000000E90F0008E9010008CE
:100040007D0F0008E90F0008E90F0008E90F00081C
:10005000E90F0008E90F0008E90F0008E90F0008A0
:10006000E90F0008E90F0008E90F00084D04000837
:100070006104000875040008890400089D04000854
:10008000A9040008B5040008E90F0008E90F0008FA
:10009000E90F0008E90F0008E90F0008E90F000860
:1000A000E90F0008E90F0008E90F0008E90F000850
:1000B000E90F0008E90F0008E90F0008E90F000840
:1000C000E90F0008E90F0008E90F0008E90F000830
:1000D000E90F0008E90F0008E90F0008E90F000820
:1000E000E90F0008E90F000800000000E90F000810
:1000F000E90F0008E90F0008E90F0008E90F000800
:10010000E90F0008E90F0008E90F0008E90F0008EF
:10011000E90F0008E90F0008E90F0008E90F0008DF
:10012000C1040008CD040008D9040008E90F000844
:1001300010B5054C237833B9044B13B10448AFF321
:1001400000800123237010BD080000200000000083
:100150003410000808B5034B1BB103490348AFF343
:10016000008008BD000000000C00002034100008D2
:1001700080B483B000AF0346FB710D4A97F9073096
:100180005B115BB252F82330FA7902F01F020121B1
:1001900001FA02F21046064997F90720521152B2AD
:1001A000034341F8223000BF0C37BD4680BC704786
:1001B00000E100E080B400AF0A4B1B68094A23F05D
:1001C00001031360074B1B68064A43F002031360E8
:1001D000044B1B68034A43F00403136000BFBD4691
:1001E00080BC704710E000E080B500AF094B1A6892
:1001F000094B1B689A4205D2064B1B680133054A1E
:10020000136005E0034B00221A60044B1B689847FB
:1002100000BF80BD240000202C000020280000200A
:1002200080B485B000AF78600023FB737B68002B3F
:1002300002D10123FB739DE07B685B79002B02D028
:10024000012B09D015E07B681B681A687B681B6866
:1002500022F010021A600CE07B681B681A687B6849
:100260001B6842F010021A607B681B6810221A603B
:1002700000BF7B681B7A002B02D0012B09D011E054
:100280007B681B681A687B681B6842F480421A60AE
:1002900008E07B681B681A687B681B6822F4804250
:1002A0001A6000BF7B681B79002B0ED0012B16D182
:1002B0007B681B7A002B11D07B681B681A687B68EF
:1002C0001B6822F020021A6008E07B681B681A682D
:1002D0007B681B6842F020021A6000E000BF7B6868
:1002E0005B7A002B02D0012B09D011E07B681B68E0
:1002F0001A687B681B6842F080021A6008E07B681D
:100300001B681A687B681B6822F080021A6000BFB5
:100310007B689B7A002B02D0012B09D011E07B680F
:100320001B681A687B681B6842F040021A6008E08C
:100330007B681B681A687B681B6822F040021A60A1
:1003400000BF7B68DB7A002B02D0012B09D011E0C3
:100350007B681B681A687B681B6842F002021A609F
:1003600008E07B681B681A687B681B6822F0020241
:100370001A6000BFFB7B18461437BD4680BC70472F
:1003800080B485B000AF786039600023FB733B68B0
:10039000002B02D07B68002B02D10123FB7303E00A
:1003A0007B681B683A689A60FB7B18461437BD4629
:1003B00080BC704780B485B000AF7860396000239E
:1003C000FB733B68002B02D07B68002B02D101231A
:1003D000FB7303E07B681B683A68DA60FB7B1846B6
:1003E0001437BD4680BC704780B485B000AF7860DC
:1003F0000023FB737B68002B02D10123FB7307E012
:100400007B681B681A687B681B6842F001021A60EF
:10041000FB7B18461437BD4680BC704780B485B05E
:1004200000AF786039600023FB737B68002B02D13A
:100430000123FB7303E07B681B683A685A60FB7B0F
:1004400018461437BD4680BC7047000080B500AF29
:10045000024B1B68984700BF80BD00BF30000020E2
:1004600080B500AF024B1B68984700BF80BD00BF3E
:100470003C00002080B500AF024B1B68984700BFCE
:1004800080BD00BF3400002080B500AF024B1B6868
:10049000984700BF80BD00BF3400002080B400AF8B
:1004A00000BFBD4680BC704780B400AF00BFBD46F2
:1004B00080BC704780B400AF00BFBD4680BC7047B1
:1004C00080B400AF00BFBD4680BC704780B400AFB1
:1004D00000BFBD4680BC704780B400AF00BFBD46C2
:1004E00080BC704780B485B000AF78600023FB7398
:1004F0007B68002B02D10123FB730EE27B681B7922
:10050000072B00F2FD807B685B79032B76D801A274
:1005100052F823F0250500085B0500089105000846
:10052000C70500087B681B6819687B681B799B00FE
:100530000F2202FA03F3DA437B681B680A401A6051
:100540007B681B6819687B681B799B0004229A40B2
:100550007B681B680A431A6053E07B681B68196854
:100560007B681B799B000F2202FA03F3DA437B6856
:100570001B680A401A607B681B6819687B681B79D6
:100580009B0001229A407B681B680A431A6038E08E
:100590007B681B6819687B681B799B000F2202FA35
:1005A00003F3DA437B681B680A401A607B681B68A8
:1005B00019687B681B799B0002229A407B681B6844
:1005C0000A431A601DE07B681B6819687B681B7909
:1005D0009B000F2202FA03F3DA437B681B680A4090
:1005E0001A607B681B6819687B681B799B00032273
:1005F0009A407B681B680A431A6002E00123FB7380
:1006000000BF7B689B79062B77D801A252F823F0B4
:100610002D0600084D060008870600082D06000874
:100620004D06000887060008C10600087B681B68A5
:1006300019687B681B799B000233032202FA03F3DB
:10064000DA437B681B680A401A6066E17B681B68B6
:1006500019687B681B799B000233032202FA03F3BB
:10066000DA437B681B680A401A607B681B6819685C
:100670007B681B799B00023301229A407B681B68D0
:100680000A431A6049E17B681B6819687B681B791B
:100690009B000233032202FA03F3DA437B681B68F0
:1006A0000A401A607B681B6819687B681B799B008D
:1006B000023302229A407B681B680A431A602CE1CD
:1006C0007B681B6819687B681B799B0002330322D7
:1006D00002FA03F3DA437B681B680A401A607B68FE
:1006E0001B6819687B681B799B00023303229A40C0
:1006F0007B681B680A431A600FE10123FB730CE15E
:100700007B685B79032B7FD801A252F823F000BFEE
:10071000210700085B07000895070008CF070008BD
:100720007B681B6859687B681B79083B9B000F221C
:1007300002FA03F3DA437B681B680A405A607B685D
:100740001B6859687B681B79083B9B0004229A4010
:100750007B681B680A435A6059E07B681B685968CC
:100760007B681B79083B9B000F2202FA03F3DA43F4
:100770007B681B680A405A607B681B6859687B6805
:100780001B79083B9B0001229A407B681B680A4347
:100790005A603CE07B681B6859687B681B79083BA2
:1007A0009B000F2202FA03F3DA437B681B680A40BE
:1007B0005A607B681B6859687B681B79083B9B0003
:1007C00002229A407B681B680A435A601FE07B68DC
:1007D0001B6859687B681B79083B9B000F2202FA53
:1007E00003F3DA437B681B680A405A607B681B6826
:1007F00059687B681B79083B9B0003229A407B6801
:100800001B680A435A6002E00123FB7300BF7B6848
:100810009B79062B7ED801A252F823F039080008F4
:100820005B08000899080008390800085B08000800
:1008300099080008D70800087B681B6859687B681E
:100840001B79083B9B000233032202FA03F3DA43CD
:100850007B681B680A405A605FE07B681B685968C8
:100860007B681B79083B9B000233032202FA03F3E7
:10087000DA437B681B680A405A607B681B685968CA
:100880007B681B79083B9B00023301229A407B68FE
:100890001B680A435A6040E07B681B6859687B68A4
:1008A0001B79083B9B000233032202FA03F3DA436D
:1008B0007B681B680A405A607B681B6859687B68C4
:1008C0001B79083B9B00023302229A407B681B681D
:1008D0000A435A6021E07B681B6859687B681B7972
:1008E000083B9B000233032202FA03F3DA437B68DE
:1008F0001B680A405A607B681B6859687B681B79D3
:10090000083B9B00023303229A407B681B680A4322
:100910005A6002E00123FB7300BFFB7B18461437CB
:10092000BD4680BC704700BF80B485B000AF786022
:100930000023FB737B68002B02D10123FB7340E192
:100940007B681B7D012B08D17B681B681A687B685C
:100950001B6822F400721A6023E07B681B7D002B69
:1009600008D17B681B681A687B681B6842F40072B8
:100970001A6016E07B681B7D022B10D17B681B6818
:100980001A687B681B6842F400721A607B681B68F7
:100990001A687B681B6842F480721A6001E00123C8
:1009A000FB737B681B79002B08D17B681B681A6876
:1009B0007B681B6842F004021A600EE07B681B79BA
:1009C000012B08D17B681B681A687B681B6822F0C2
:1009D00004021A6001E00123FB737B685B7C002B3F
:1009E00008D17B681B681A687B681B6822F4006268
:1009F0001A600EE07B685B7C012B08D17B681B686A
:100A00001A687B681B6842F400621A6001E00123E7
:100A1000FB737B689B79002B08D17B681B681A6885
:100A20007B681B6822F002021A600EE07B689B79EB
:100A3000012B08D17B681B681A687B681B6842F031
:100A400002021A6001E00123FB737B68DB79002B53
:100A500008D17B681B681A687B681B6822F001025A
:100A60001A600EE07B68DB79012B08D17B681B687C
:100A70001A687B681B6842F001021A6001E00123DA
:100A8000FB737B689B7C002B08D17B681B685A68D2
:100A90007B681B6842F002025A6007E07B681B68B3
:100AA0005A687B681B6822F002025A607B68DB7C14
:100AB000002B08D17B681B685A687B681B6842F072
:100AC00001025A6007E07B681B685A687B681B68F4
:100AD00022F001025A607B685B79072B66D801A27D
:100AE00052F823F0050B0008170B00082D0B000827
:100AF000430B0008590B00086F0B0008850B00081A
:100B00009B0B00087B681B681A687B681B6822F0D7
:100B100038021A604DE07B681B681B6823F03802BE
:100B20007B681B6842F008021A6042E07B681B6821
:100B30001B6823F038027B681B6842F010021A60C1
:100B400037E07B681B681B6823F038027B681B68F2
:100B500042F018021A602CE07B681B681B6823F0C7
:100B600038027B681B6842F020021A6021E07B6833
:100B70001B681B6823F038027B681B6842F0280260
:100B80001A6016E07B681B681B6823F038027B68DC
:100B90001B6842F030021A600BE07B681B681A6821
:100BA0007B681B6842F038021A6002E00123FB7385
:100BB00000BF7B681B681A687B681B6842F04002B4
:100BC0001A60FB7B18461437BD4680BC704700BFD7
:100BD00080B586B000AFF860B9607A600023FB751D
:100BE000FB68002B02D10123FB7519E0FB689B68B1
:100BF000B9681846FFF7DEFBFB689A68FB681B685C
:100C00000C3319461046FFF7BBFBFB689B687968FD
:100C10001846FFF703FCFB689B681846FFF7E4FBE8
:100C2000FB7D18461837BD4680BD80B586B000AF45
:100C3000F860B9607A600023FB75FB68002B02D175
:100C40000123FB7519E0FB68DB68B9681846FFF7FC
:100C5000B1FBFB68DA68FB681B680C331946104669
:100C6000FFF78EFBFB68DB6879681846FFF7D6FB59
:100C7000FB68DB681846FFF7B7FBFB7D18461837A3
:100C8000BD4680BD80B500AF00F016F80E20FFF71E
:100C90006FFA052204490548FFF7C7FF05220449FA
:100CA0000448FFF795FFFEE7A00000206800002041
:100CB00000000020D400002080B500AFFFF77AFAD2
:100CC0009B4B9B699A4A43F004039361984B9B6941
:100CD000974A43F008039361954B9B69944A43F408
:100CE00080539361924B5B69914A43F001035361D6
:100CF000904B914A1A608F4B00221A718D4B002243
:100D00005A748C4B00229A718A4B0022DA71894BFB
:100D100000225A71874B02221A75864B00225A759F
:100D2000844B00229A75834B01221A74814B002256
:100D3000DA75804B01221A767E4B00229A747D4B25
:100D40000122DA747D4B7E4A1A607C4B07221A71AD
:100D50007A4B02225A71794B05229A717748FFF734
:100D6000C1FB784B764A1A60764B06221A71754B96
:100D700000225A71734B01229A717248FFF7B2FB3D
:100D8000714B6F4A1A60704B05221A716E4B02222A
:100D90005A716D4B05229A716B48FFF7A3FB6B4BA1
:100DA000674A1A60694B04221A71684B02225A7111
:100DB000664B05229A716548FFF794FB644B654AC0
:100DC0001A60634B01221A72614B01221A71604B47
:100DD00001225A715E4B00229A715D4B0022DA713A
:100DE0005B4B00225A725A4B01229A72584B0122D5
:100DF000DA72504B564A9A604E4B9B681846FFF782
:100E00000FFA4C48FFF790FD494BDB69484A43F421
:100E10008043D361504B514A1A604F4B01221A71E3
:100E20004D4B00225A744C4B00229A714A4B0022BF
:100E3000DA71494B00225A71474B01221A75464B11
:100E400000225A75444B00229A75434B01221A74B2
:100E5000414B0022DA75404B01221A763E4B0122AB
:100E60009A743D4B0022DA743D4B3E4A1A603C4B6B
:100E70000F221A713A4B00225A71394B01229A7192
:100E80003748FFF72FFB384B364A1A60364B0E2295
:100E90001A71354B02225A71334B05229A7132482E
:100EA000FFF720FB314B2F4A1A60304B0D221A718D
:100EB0002E4B00225A712D4B01229A712B48FFF7BD
:100EC00011FB2B4B274A1A60294B0C221A71284B15
:100ED00000225A71264B01229A712548FFF702FB26
:100EE000244B254A1A60234B01221A72214B0122FE
:100EF0001A71204B00225A711E4B00229A711D4B11
:100F00000022DA711B4B00225A721A4B01229A728C
:100F1000184B0022DA72104B164ADA600E4BDB686F
:100F20001846FFF77DF90C48FFF7FEFC00BF80BDB7
:100F300000100240D400002000300140A800002032
:100F400000080140B0000020980000206000002050
:100F5000840000203000024068000020003800407B
:100F600058000020000C014090000020B800002034
:100F7000CC000020C00000204400024080B400AF3C
:100F8000044BDB68034A43F00103D36000BFBD4656
:100F900080BC7047000801400D488546AFF30080D3
:100FA0000C480D490D4A002302E0D458C4500433C4
:100FB000C4188C42F9D30A4A0A4C002301E013609A
:100FC0000432A242FBD300F011F8FFF75BFEFEE70C
:100FD0000028002000000020080000205410000815
:100FE00008000020F0000020FEE7000070B5002699
:100FF0000C4D0D4C641BA410A64209D100F01AF848
:1010000000260A4D0A4C641BA410A64205D170BDEF
:1010100055F8043B98470136EEE755F8043B9847EE
:101020000136F2E74C1000084C1000084C10000884
:1010300050100008F8B500BFF8BC08BC9E467047C9
:0C104000F8B500BFF8BC08BC9E46704725
:04104C005501000842
:041050003101000862
:08105400010203040500000085
:0400000508000F9947
:00000001FF
