:020000040800F2
:1000000000280020C51E0008151F0008151F000845
:10001000151F0008151F0008151F0008000000002C
:10002000000000000000000000000000151F000894
:10003000151F000800000000151F000891020008AD
:10004000951E0008151F0008151F0008151F000841
:10005000151F0008151F0008151F0008151F0008B0
:10006000151F0008151F0008151F000829060008A5
:100070003D060008510600086506000879060008DC
:100080008506000891060008151F0008151F0008C6
:10009000151F0008151F0008151F0008151F000870
:1000A000151F0008151F0008151F0008151F000860
:1000B000051C0008151F0008151F0008151F000863
:1000C000151F0008151F0008151F0008151F000840
:1000D000151F0008151F0008151F0008151F000830
:1000E000151F0008151F000800000000151F00085C
:1000F000151F0008151F0008151F0008151F000810
:10010000151F0008151F0008151F0008151F0008FF
:10011000151F0008151F0008151F0008151F0008EF
:100120009D060008A9060008B5060008151F00086E
:1001300010B5054C237833B9044B13B10448AFF321
:1001400000800123237010BD040000200000000087
:10015000601F000808B5034B1BB103490348AFF308
:10016000008008BD0000000008000020601F00089B
:1001700080B483B000AF0346FB710D4A97F9073096
:100180005B115BB252F82330FA7902F01F020121B1
:1001900001FA02F21046064997F90720521152B2AD
:1001A000034341F8223000BF0C37BD4680BC704786
:1001B00000E100E080B400AF0A4B1B68094A23F05D
:1001C00001031360074B1B68064A43F002031360E8
:1001D000044B1B68034A43F00403136000BFBD4691
:1001E00080BC704710E000E080B584B000AF78605C
:1001F0001A4B1B68194A23F0010313600023FB60AC
:100200007B68BB604FF4FA5000F02AF8134B1B6870
:10021000124A23F002031360104B1B680F4A43F08D
:100220000103136010E000BF0C4B1B681B0C03F0B4
:100230000103002BF8D0094B1B68084A43F48033B4
:100240001360FB680133FB60FA68BB689A42EAD32B
:1002500000BF00BF1037BD4680BD00BF10E000E00A
:1002600080B483B000AF78607B68B3F1807F04D93D
:10027000064B4FF080725A6002E0044A7B6853607C
:1002800000BF0C37BD4680BC704700BF10E000E0E7
:1002900080B500AF094B1A68094B1B689A4205D21A
:1002A000064B1B680133054A136005E0034B00222F
:1002B0001A60044B1B68984700BF80BD30000020C7
:1002C000380000203400002080B485B000AF786092
:1002D0000023FB737B68002B02D10123FB739DE09D
:1002E0007B685B7A002B02D0012B09D015E07B687C
:1002F0001B681A687B681B6822F010021A600CE009
:100300007B681B681A687B681B6842F010021A60E1
:100310007B681B6810221A6000BF7B681B7B002B68
:1003200002D0012B09D011E07B681B681A687B683A
:100330001B6842F480421A6008E07B681B681A68F8
:100340007B681B6822F480421A6000BF7B681B7ABE
:10035000002B0ED0012B16D17B681B7B002B11D0FC
:100360007B681B681A687B681B6822F020021A6091
:1003700008E07B681B681A687B681B6842F02002F3
:100380001A6000E000BF7B685B7B002B02D0012B72
:1003900009D011E07B681B681A687B681B6842F013
:1003A00080021A6008E07B681B681A687B681B681B
:1003B00022F080021A6000BF7B689B7B002B02D07A
:1003C000012B09D011E07B681B681A687B681B68E9
:1003D00042F040021A6008E07B681B681A687B687C
:1003E0001B6822F040021A6000BF7B68DB7B002B99
:1003F00002D0012B09D011E07B681B681A687B686A
:100400001B6842F002021A6008E07B681B681A68E9
:100410007B681B6822F002021A6000BFFB7B184653
:100420001437BD4680BC704780B485B000AF78609B
:1004300039600023FB733B68002B02D07B68002BE4
:1004400002D10123FB7303E07B681B683A689A6062
:10045000FB7B18461437BD4680BC704780B485B01E
:1004600000AF786039600023FB733B68002B02D03B
:100470007B68002B02D10123FB7303E07B681B68C0
:100480003A68DA60FB7B18461437BD4680BC70477B
:1004900080B485B000AF78600023FB737B68002BCD
:1004A00002D10123FB7307E07B681B681A687B6835
:1004B0001B6842F001021A60FB7B18461437BD46E8
:1004C00080BC704780B485B000AF78600023FB73B8
:1004D0007B68002B02D10123FB7307E07B681B685C
:1004E0001A687B681B6822F001021A60FB7B1846C1
:1004F0001437BD4680BC704780B485B000AF7860CB
:1005000039600023FB737B68002B02D10123FB734E
:1005100003E07B681B683A685A60FB7B1846143717
:10052000BD4680BC7047000080B485B000AF7860E5
:1005300039600023FB737B68002B02D10123FB731E
:100540001BE07B681B68104A934211D00E4A93420D
:1005500012D80E4A934203D00D4A934204D00BE0C6
:100560000C4A3B68136008E00B4A3B68136004E0E8
:100570000A4A3B68136000E000BFFB7B1846143753
:10058000BD4680BC704700BF3000024008000240FA
:100590001C0002403C0000204800002040000020D9
:1005A00080B485B000AF78600023FB737B68002BBC
:1005B00002D10123FB732AE07B681B68174A934230
:1005C0001BD0164A934221D8154A934203D0154AAC
:1005D000934209D01AE07B685B685A687B685B6865
:1005E00042F002025A6012E07B685B685A687B68DE
:1005F0005B6842F020025A6009E07B685B685A68D9
:100600007B685B6842F400725A6000E000BF00BF84
:1006100018461437BD4680BC704700BF300002400A
:10062000080002401C00024080B500AF024B1B686E
:10063000984700BF80BD00BF3C00002080B500AFE0
:10064000024B1B68984700BF80BD00BF48000020D8
:1006500080B500AF024B1B68984700BF80BD00BF4C
:100660004000002080B500AF024B1B68984700BFD8
:1006700080BD00BF4000002080B400AF00BFBD4679
:1006800080BC704780B400AF00BFBD4680BC7047DF
:1006900080B400AF00BFBD4680BC704780B400AFDF
:1006A00000BFBD4680BC704780B400AF00BFBD46F0
:1006B00080BC704780B400AF00BFBD4680BC7047AF
:1006C00090B589B002AF0446084611461A46234643
:1006D000FB710346BB710B467B7113467B80FB7934
:1006E000FB75FB7D1F2B02D80023FB7102E0FB7D15
:1006F000203BFB7500233B7514E0FA7D3B7DC3F185
:100700000500397D3C4C13465B0013445B002344D9
:1007100003441A7807F118030B4403F80C2C3B7DB3
:1007200001333B753B7D052BE7D9BB7998B27B79CB
:1007300099B23B8D1A46520013445B009AB23B8D2E
:10074000DB009CB2BB8D0093234600F0C7FC002366
:100750007B7548E00023BB753FE07B7D07F1180205
:10076000134413F80C3C1A46BB7D42FA03F303F022
:100770000103002B2ED03B8D012B10D1BB799AB2F7
:100780007B7D9BB2134498B27B799AB2BB7D9BB2BE
:1007900013449BB27A88194600F0E8FB1AE0BB7953
:1007A0009AB27B7D9BB2398D01FB03F39BB213445C
:1007B00098B27B799AB2BB7D9BB2398D01FB03F372
:1007C0009BB2134499B23C8D3A8D7B8800932346AB
:1007D00000F084FCBB7D0133BB75BB7D072BBCD90E
:1007E0007B7D01337B757B7D052BB3D900BF00BFBB
:1007F0001C37BD4690BD00BF841F000890B585B072
:1008000002AF7860084611461A460346FB700B4655
:10081000BB7013463B8017E07B685A1C7A601878DF
:100820003C88BA78F978BB8B01933B8B00932346C5
:10083000FFF746FF3B8BDBB21A46520013445B00C6
:10084000DAB2FB781344FB707B681B78002BE3D192
:1008500000BF00BF0C37BD4690BD000080B500AFA3
:10086000544B554A1A60534B00221A71514B0022C7
:100870005A74504B00229A714E4B0022DA714D4B44
:1008800000225A714B4B02221A754A4B00225A75AC
:10089000484B00229A75474B01221A74454B00229F
:1008A000DA75444B01221A76424B00229A74414B6E
:1008B0000122DA74414B424A1A60404B07221A71F6
:1008C0003E4B02225A713D4B05229A713B4800F083
:1008D00061FC3C4B3A4A1A603A4B05221A71394B7B
:1008E00002225A71374B05229A71364800F052FCA9
:1008F000354B334A1A60344B03221A71324B0222B1
:100900005A71314B03229A712F4800F043FC2F4B50
:100910002B4A1A602D4B02221A712C4B02225A715B
:100920002A4B03229A71294800F034FC284B244AB0
:100930001A60274B08221A71254B02225A71244B48
:1009400003229A71224800F025FC224B224A1A60A9
:10095000204B224A5A601F4B01221A731D4B012261
:100960001A721C4B01225A721A4B00229A72194BAE
:100970000022DA72174B00225A73164B01229A7327
:10098000144B0022DA730B4B124A9A60094B9B6896
:100990001846FFF799FC074B9B6811491846FFF76B
:1009A000C3FD044800F088FE0021074800F014FE53
:1009B00000BF80BD8800002000300140780000208A
:1009C0000008014080000020A400002070000020EA
:1009D0006800002058000020300002400000024063
:1009E000E509000880B500AF124B9B681846FFF779
:1009F00069FD104B9B681846FFF7D2FD0E4B1A6835
:100A00000E4B1B689A420CD20D4B1B681A460D49BF
:100A1000084801F00EF8084B1B680133064A1360C2
:100A200006E0054B00221A600121074800F0D4FDC2
:100A300000BF80BD88000020240000202800002086
:100A400020000020AC000020A400002080B582B06F
:100A500000AF0346FB71FB1D01221946034800F05D
:100A60009BFF00BF0837BD4680BD00BF8800002047
:100A700080B582B000AF0346FB710021094800F049
:100A8000ABFD0021084800F0A7FDFB791846FFF7F1
:100A9000DDFF0121034800F09FFD00BF0837BD4680
:100AA00080BD00BFA40000207000002080B582B08F
:100AB00000AF0346FB710021094800F08DFD0121C4
:100AC000084800F089FDFB791846FFF7BFFF0121B8
:100AD000034800F081FD00BF0837BD4680BD00BF60
:100AE000A40000207000002090B583B000AF044641
:100AF000084611461A462346FB800346BB800B4638
:100B00007B8013463B802A20FFF7B2FFFB881B0A3D
:100B10009BB2DBB21846FFF7C9FFFB88DBB2184671
:100B2000FFF7C4FF7B881B0A9BB2DBB21846FFF7B6
:100B3000BDFF7B88DBB21846FFF7B8FF2B20FFF71D
:100B400097FFBB881B0A9BB2DBB21846FFF7AEFFCC
:100B5000BB88DBB21846FFF7A9FF3B881B0A9BB294
:100B6000DBB21846FFF7A2FF3B88DBB21846FFF75F
:100B70009DFF2C20FFF77CFF00BF0C37BD4690BDCA
:100B800080B500AF0021094800F026FDC820FFF71E
:100B90002BFB0021064800F01FFDC820FFF724FBB7
:100BA0000121024800F018FD00BF80BD6800002050
:100BB000A400002080B584B000AF0346FB71FB7930
:100BC000FB733620FFF754FF0120FFF70DFBFB7B83
:100BD000032B37D801A252F823F000BFED0B000819
:100BE000030C0008190C00082F0C00084820FFF720
:100BF0005DFF174BF0221A80164B4FF4A0721A803B
:100C000021E02820FFF752FF114B4FF4A0721A8009
:100C1000104BF0221A8016E08820FFF747FF0C4B9C
:100C2000F0221A800B4B4FF4A0721A800BE0E820E0
:100C3000FFF73CFF064B4FF4A0721A80054BF022E1
:100C40001A8000E000BF00BF1037BD4680BD00BF66
:100C5000020000200000002080B500AF0121024802
:100C600000F0BAFC00BF80BD6800002080B500AF76
:100C7000FFF7F4FDFFF7F0FFFFF782FF0120FFF71A
:100C8000F7FE4FF47A70FFF7AFFACB20FFF7F0FED4
:100C90003920FFF70BFF2C20FFF708FF0020FFF79C
:100CA00005FF3420FFF702FF0220FFF7FFFECF20F1
:100CB000FFF7DEFE0020FFF7F9FEC120FFF7F6FE8A
:100CC0003020FFF7F3FEE820FFF7D2FE8520FFF784
:100CD000EDFE0020FFF7EAFE7820FFF7E7FEEA20AE
:100CE000FFF7C6FE0020FFF7E1FE0020FFF7DEFE63
:100CF000ED20FFF7BDFE6420FFF7D8FE0320FFF7CD
:100D0000D5FE1220FFF7D2FE8120FFF7CFFEF7209D
:100D1000FFF7AEFE2020FFF7C9FEC020FFF7A8FEB8
:100D20002320FFF7C3FEC120FFF7A2FE1020FFF72C
:100D3000BDFEC520FFF79CFE3E20FFF7B7FE282032
:100D4000FFF7B4FEC720FFF793FE8620FFF7AEFE45
:100D50003620FFF78DFE4820FFF7A8FE3A20FFF768
:100D600087FE5520FFF7A2FEB120FFF781FE00208D
:100D7000FFF79CFE1820FFF799FEB620FFF778FEDC
:100D80000820FFF793FE8220FFF790FE2720FFF751
:100D90008DFEF220FFF76CFE0020FFF787FE262075
:100DA000FFF766FE0120FFF781FEE020FFF760FEFF
:100DB0000F20FFF77BFE3120FFF778FE2B20FFF797
:100DC00075FE0C20FFF772FE0E20FFF76FFE082065
:100DD000FFF76CFE4E20FFF769FEF120FFF766FE7D
:100DE0003720FFF763FE0720FFF760FE1020FFF7B4
:100DF0005DFE0320FFF75AFE0E20FFF757FE092085
:100E0000FFF754FE0020FFF751FEE120FFF730FE10
:100E10000020FFF74BFE0E20FFF748FE1420FFF7DF
:100E200045FE0320FFF742FE1120FFF73FFE07209B
:100E3000FFF73CFE3120FFF739FEC120FFF736FEF9
:100E40004820FFF733FE0820FFF730FE0F20FFF7A2
:100E50002DFE0C20FFF72AFE3120FFF727FE36205B
:100E6000FFF724FE0F20FFF721FE1120FFF700FE01
:100E70007820FFF7B9F92920FFF7FAFD0020FFF7E6
:100E800099FE00BF80BD000080B588B000AF03466A
:100E90003960FB8001212F4800F09EFB00212E4885
:100EA00000F09AFB3B685B00B3F5FA7F03D22B4A54
:100EB0003B68136003E0294B4FF4FA721A60FB8819
:100EC0001B0A9BB2FB750023FB610DE0244AFB6902
:100ED0001344FA7D1A70FB690133FA88D1B2204AB3
:100EE000D154FB690233FB611C4B1B68FA699A42BF
:100EF000ECD33B685B003B61184B1B683A69B2FB63
:100F0000F3F3184A1360154B1A683B69B3FBF2F10F
:100F100002FB01F29B1AFB60124B1B68002B11D0E5
:100F20000023BB6109E00D4B1B681A460C490E48B3
:100F300000F032FDBB690133BB610A4B1B68BA6923
:100F40009A42F0D30121044800F046FB00BF20374D
:100F5000BD4680BD70000020A400002020000020BD
:100F6000AC000020280000208800002080B586B05A
:100F700000AF0346FB800B46BB8013467B80524B81
:100F80001B889BB2FA889A4280F09A804F4B1B884C
:100F90009BB2BA889A4280F0938000214C4800F0BE
:100FA0001BFB00214B4800F017FB2A20FFF74EFDEA
:100FB0000121474800F010FB0121464800F00CFBDE
:100FC0000021444800F008FBFB881B0A9BB2DBB2FF
:100FD0003B75FB88DBB27B75FB8801331B12DBB2F0
:100FE000BB75FB88DBB20133DBB2FB7507F1140381
:100FF00004221946384800F0CFFC0121354800F0A2
:10100000EBFA0021324800F0E7FA0021314800F005
:10101000E3FA2B20FFF71AFD01212D4800F0DCFA3E
:1010200001212C4800F0D8FA00212A4800F0D4FA17
:10103000BB881B0A9BB2DBB23B74BB88DBB27B7400
:10104000BB8801331B12DBB2BB74BB88DBB201333C
:10105000DBB2FB7407F11003042219461E4800F0AE
:101060009BFC01211B4800F0B7FA0021184800F052
:10107000B3FA0021174800F0AFFA2C20FFF7E6FC86
:101080000121134800F0A8FA0121124800F0A4FA47
:101090000021104800F0A0FA7B881B0A9BB2DBB24B
:1010A0003B737B88DBB27B7307F10C03022219468A
:1010B000094800F071FC0121064800F08DFA00E0BB
:1010C00000BF1837BD4680BD020000200000002090
:1010D00070000020A40000208800002090B583B09C
:1010E00000AF0446084611461A462346FB800346D5
:1010F000BB800B467B8013463B80244B1B889BB2F6
:10110000FA889A423DD2224B1B889BB2BA889A42F7
:1011100037D2FA887B8813441C4A128892B29342D1
:1011200005DD1A4B1B889AB2FB88D31A7B80BA88DC
:101130003B881344164A128892B2934205DD144B41
:101140001B889AB2BB88D31A3B80FA887B881344E9
:101150009BB2013B9CB2BA883B8813449BB2013BD3
:101160009BB2B988F8882246FFF7BEFC3B887A8894
:1011700002FB03F31A463B8B11461846FFF784FE29
:1011800000E000BF0C37BD4690BD00BF020000204C
:101190000000002080B485B000AF78600023FB73AE
:1011A0007B68002B02D10123FB730EE27B681B7965
:1011B000072B00F2FD807B685B79032B76D801A2B8
:1011C00052F823F0D51100080B1200084112000854
:1011D000771200087B681B6819687B681B799B0085
:1011E0000F2202FA03F3DA437B681B680A401A6095
:1011F0007B681B6819687B681B799B0004229A40F6
:101200007B681B680A431A6053E07B681B68196897
:101210007B681B799B000F2202FA03F3DA437B6899
:101220001B680A401A607B681B6819687B681B7919
:101230009B0001229A407B681B680A431A6038E0D1
:101240007B681B6819687B681B799B000F2202FA78
:1012500003F3DA437B681B680A401A607B681B68EB
:1012600019687B681B799B0002229A407B681B6887
:101270000A431A601DE07B681B6819687B681B794C
:101280009B000F2202FA03F3DA437B681B680A40D3
:101290001A607B681B6819687B681B799B000322B6
:1012A0009A407B681B680A431A6002E00123FB73C3
:1012B00000BF7B689B79062B77D801A252F823F0F8
:1012C000DD120008FD12000837130008DD120008C7
:1012D000FD12000837130008711300087B681B68B3
:1012E00019687B681B799B000233032202FA03F31F
:1012F000DA437B681B680A401A6066E17B681B68FA
:1013000019687B681B799B000233032202FA03F3FE
:10131000DA437B681B680A401A607B681B6819689F
:101320007B681B799B00023301229A407B681B6813
:101330000A431A6049E17B681B6819687B681B795E
:101340009B000233032202FA03F3DA437B681B6833
:101350000A401A607B681B6819687B681B799B00D0
:10136000023302229A407B681B680A431A602CE110
:101370007B681B6819687B681B799B00023303221A
:1013800002FA03F3DA437B681B680A401A607B6841
:101390001B6819687B681B799B00023303229A4003
:1013A0007B681B680A431A600FE10123FB730CE1A1
:1013B0007B685B79032B7FD801A252F823F000BF32
:1013C000D11300080B140008451400087F1400080E
:1013D0007B681B6859687B681B79083B9B000F2260
:1013E00002FA03F3DA437B681B680A405A607B68A1
:1013F0001B6859687B681B79083B9B0004229A4054
:101400007B681B680A435A6059E07B681B6859680F
:101410007B681B79083B9B000F2202FA03F3DA4337
:101420007B681B680A405A607B681B6859687B6848
:101430001B79083B9B0001229A407B681B680A438A
:101440005A603CE07B681B6859687B681B79083BE5
:101450009B000F2202FA03F3DA437B681B680A4001
:101460005A607B681B6859687B681B79083B9B0046
:1014700002229A407B681B680A435A601FE07B681F
:101480001B6859687B681B79083B9B000F2202FA96
:1014900003F3DA437B681B680A405A607B681B6869
:1014A00059687B681B79083B9B0003229A407B6844
:1014B0001B680A435A6002E00123FB7300BF7B688C
:1014C0009B79062B7ED801A252F823F0E91400087C
:1014D0000B15000849150008E91400080B15000851
:1014E00049150008871500087B681B6859687B68E8
:1014F0001B79083B9B000233032202FA03F3DA4311
:101500007B681B680A405A605FE07B681B6859680B
:101510007B681B79083B9B000233032202FA03F32A
:10152000DA437B681B680A405A607B681B6859680D
:101530007B681B79083B9B00023301229A407B6841
:101540001B680A435A6040E07B681B6859687B68E7
:101550001B79083B9B000233032202FA03F3DA43B0
:101560007B681B680A405A607B681B6859687B6807
:101570001B79083B9B00023302229A407B681B6860
:101580000A435A6021E07B681B6859687B681B79B5
:10159000083B9B000233032202FA03F3DA437B6821
:1015A0001B680A405A607B681B6859687B681B7916
:1015B000083B9B00023303229A407B681B680A4366
:1015C0005A6002E00123FB7300BFFB7B184614370F
:1015D000BD4680BC704700BF80B485B000AF786066
:1015E0000B46FB700023FB737B68002B02D10123A9
:1015F000FB7323E0FB78002B0DD17B681B685969D6
:101600007B681B791A46012303FA02F27B681B6888
:101610000A435A6112E0FB78012B0DD17B681B68ED
:1016200019697B681B791A46012303FA02F27B6869
:101630001B680A431A6101E00123FB73FB7B184618
:101640001437BD4680BC704780B485B000AF786069
:101650000023FB737B68002B02D10123FB7324E082
:101660007B681B68DB687A681279D34003F001035A
:10167000002B0DD17B681B6819697B681B791A46A2
:10168000012303FA02F27B681B680A431A610CE02B
:101690007B681B6859697B681B791A46012303FA2A
:1016A00002F27B681B680A435A61FB7B18461437B9
:1016B000BD4680BC7047000080B485B000AF786044
:1016C0000023FB737B68002B02D10123FB735CE1D9
:1016D0007B681B7D012B08D17B681B681A687B68BF
:1016E0001B6822F400721A6023E07B681B7D002BCC
:1016F00008D17B681B681A687B681B6842F400721B
:101700001A6016E07B681B7D022B10D17B681B687A
:101710001A687B681B6842F400721A607B681B6859
:101720001A687B681B6842F480721A6001E001232A
:10173000FB737B681B79002B08D17B681B681A68D8
:101740007B681B6842F004021A600EE07B681B791C
:10175000012B08D17B681B681A687B681B6822F024
:1017600004021A6001E00123FB737B685B7D012B9F
:1017700008D17B681B681A687B681B6842F40042CA
:101780001A600EE07B685B7D002B08D17B681B68CC
:101790001A687B681B6822F400421A6001E001238A
:1017A000FB737B685B7C002B08D17B681B681A6825
:1017B0007B681B6822F400621A600EE07B685B7C29
:1017C000012B08D17B681B681A687B681B6842F490
:1017D00000621A6001E00123FB737B689B79002B98
:1017E00008D17B681B681A687B681B6822F00202BC
:1017F0001A600EE07B689B79012B08D17B681B681F
:101800001A687B681B6842F002021A6001E001233B
:10181000FB737B68DB79002B08D17B681B681A6837
:101820007B681B6822F001021A600EE07B68DB799E
:10183000012B08D17B681B681A687B681B6842F023
:1018400001021A6001E00123FB737B689B7C002B83
:1018500008D17B681B685A687B681B6842F00202EB
:101860005A6007E07B681B685A687B681B6822F037
:1018700002025A607B68DB7C002B08D17B681B6806
:101880005A687B681B6842F001025A6007E07B6877
:101890001B685A687B681B6822F001025A607B68EB
:1018A0005B79072B66D801A252F823F0CD18000807
:1018B000DF180008F51800080B19000821190008A6
:1018C000371900084D190008631900087B681B6868
:1018D0001A687B681B6822F038021A604DE07B684A
:1018E0001B681B6823F038027B681B6842F0080203
:1018F0001A6042E07B681B681B6823F038027B6833
:101900001B6842F010021A6037E07B681B681B6896
:1019100023F038027B681B6842F018021A602CE042
:101920007B681B681B6823F038027B681B6842F0E9
:1019300020021A6021E07B681B681B6823F03802D4
:101940007B681B6842F028021A6016E07B681B68FF
:101950001B6823F038027B681B6842F030021A6073
:101960000BE07B681B681A687B681B6842F03802D2
:101970001A6002E00123FB7300BF7B681B681A68D2
:101980007B681B6842F040021A60FB7B18461437E4
:10199000BD4680BC704700BF80B487B000AFF86020
:1019A000B9607A600023FB75FB68002B02D0BB682E
:1019B000002B02D10123FB7535E000233B61FB685E
:1019C0005B7C002B2BD112E000BFFB681B689B687F
:1019D0005B0803F00103002BF7D0BA683B6913449E
:1019E0001A78FB681B68DA603B6901333B613A692E
:1019F0007B689A42E8D316E000BFFB681B689B68CF
:101A00005B0803F00103002BF7D0BA683B6913446D
:101A10001A78FB681B68DA603B6901333B613A69FD
:101A20007B689A42E8D3FB7D18461C37BD4680BCD4
:101A3000704780B586B000AFF860B9607A60002367
:101A4000FB75FB68002B02D10123FB7519E0FB68D5
:101A50009B68B9681846FEF701FDFB689A68FB6849
:101A60001B680C3319461046FEF7DEFCFB689B68CA
:101A700079681846FEF740FDFB689B681846FEF73C
:101A800007FDFB7D18461837BD4680BD80B485B084
:101A900000AF78600023FB737B68002B02D1012329
:101AA000FB7346E07B681B681A687B681B6842F022
:101AB00004021A607B681B681A687B681B6842F026
:101AC00080021A607B681B684FF618425A627B6876
:101AD0001B684FF61842DA627B681B68B3F1804FCF
:101AE00003D0174A934205D009E07B685B68154A2A
:101AF000136004E07B685B68134A136000BF7B6877
:101B00001B687A6892689A627B681B7B002B08D1FD
:101B10007B681B68DA687B681B6842F00102DA6048
:101B200007E07B681B68DA687B681B6822F00102AB
:101B3000DA60FB7B18461437BD4680BC704700BF97
:101B400000040040AC020020A402002080B485B054
:101B500000AF78600023FB737B68002B02D1012368
:101B6000FB7307E07B681B681A687B681B6842F0A0
:101B700001021A6000BF18461437BD4680BC70478A
:101B800080B485B000AF786039600023FB737B6858
:101B9000002B02D10123FB7310E07B681B68B3F1BB
:101BA000804F03D0084A934204D007E0074A3B68BD
:101BB000136003E0064A3B68136000BFFB7B1846D6
:101BC0001437BD4680BC704700040040AC020020C2
:101BD000A402002080B485B000AF78603960002393
:101BE000FB737B68002B02D10123FB7302E0044AE4
:101BF0003B681360FB7B18461437BD4680BC7047BA
:101C0000A002002080B500AF094B1A68094B1B6881
:101C10009A4205D2064B1B680133054A136005E062
:101C2000054B1B689847024B00221A6000BF80BD1D
:101C30002C000020AC020020A002002080B584B05F
:101C400002AF00F03BF8FFF711F844F620611848A6
:101C5000FFF796FF17491648FFF7BCFF1448FFF738
:101C600075FF0623FB710D20FEF782FA1C20FEF79C
:101C70007FFA0220FEF79EFF4FF6FF730093A0232A
:101C8000802200210020FFF729FA3220FEF7ACFA6B
:101C90004FF6FF7301930123009300230A220A21C8
:101CA0000548FEF7ABFD4FF4FA60FEF79DFAE0E75A
:101CB00004030020B11E0008781F000880B500AFA3
:101CC000FEF778FA664B9B69654A43F0040393611B
:101CD000634B9B69624A43F008039361604B9B69C5
:101CE0005F4A43F4805393615D4B5B695C4A43F008
:101CF000010353615A4BDB69594A43F00103D36135
:101D0000584B4FF080421A60564B00221A73554BC5
:101D10004FF4FA725A60534B08229A605148FFF709
:101D2000B5FE514B514A1A604F4B00221A714E4B6F
:101D300002225A714C4B03229A714B48FFF72AFA40
:101D4000474BDB69464A43F48043D361484B494AD9
:101D50001A60474B01221A71454B00225A74444BBA
:101D600000229A71424B0022DA71414B00225A71D3
:101D70003F4B01221A753E4B00225A753C4B002204
:101D80009A753B4B01221A74394B0022DA75384B95
:101D900001221A76364B01229A74354B0022DA74EE
:101DA000354B364A1A60344B0F221A71324B0022DF
:101DB0005A71314B01229A712F48FFF7EBF9304BE2
:101DC0002E4A1A602E4B0E221A712D4B02225A7186
:101DD0002B4B05229A712A48FFF7DCF9294B274A39
:101DE0001A60284B0D221A71264B00225A71254B7E
:101DF00001229A712348FFF7CDF9234B1F4A1A603D
:101E0000214B0C221A71204B00225A711E4B0122C9
:101E10009A711D48FFF7BEF91C4B1D4A1A601B4BF7
:101E200001221A73194B01221A72184B00225A729E
:101E3000164B00229A72154B0022DA72134B0022C5
:101E40005A73124B01229A73104B0022DA73084B1B
:101E50000E4ADA600648FFF72FFC00BF80BD00BFC6
:101E600000100240040300201C0300200008014071
:101E7000D002002000380040C0020020000C0140C9
:101E8000EC0200202C030020440300203403002037
:101E90004400024080B400AF044BDB68034A43F0C7
:101EA0000103D36000BFBD4680BC704700080140FD
:101EB00080B500AF0248FFF7C7FB00BF80BD00BF81
:101EC0001C0300200D488546AFF300800C480D49E7
:101ED0000D4A002302E0D458C4500433C4188C4285
:101EE000F9D30A4A0A4C002301E013600432A242EB
:101EF000FBD300F011F8FFF7A1FEFEE70028002059
:101F00000000002004000020CC2100080400002074
:101F100068030020FEE7000070B500260C4D0D4C54
:101F2000641BA410A64209D100F01AF800260A4D3D
:101F30000A4C641BA410A64205D170BD55F8043BA1
:101F400098470136EEE755F8043B98470136F2E72B
:101F5000C4210008C4210008C4210008C8210008C9
:101F6000F8B500BFF8BC08BC9E467047F8B500BF86
:081F7000F8BC08BC9E46704756
:101F7800644C726F77206F4C4C654800000000007D
:101F880000005C0000000000060006000000287C3D
:101F9800287C28005C54FE54740044201008440037
:101FA8002854542050000600000000003844000067
:101FB8000000443800000000020702000000101072
:101FC8007C101000C000000000001010101010005D
:101FD80040000000000060100C0000007C64544CBD
:101FE8007C00487C40000000645454544800445429
:101FF80054546C003C20702020005C54545424003D
:102008007C5454547400040464140C007C545454D8
:102018007C005C5454547C00440000000000C40060
:102028000000000010284400000028282828280064
:102038004428100000000804540800007C4454544C
:102048005C007C2424247C007C5454546C007C4424
:10205800444444007C44444438007C545454440070
:102068007C14141404007C44445474007C10101034
:102078007C0044447C444400604040447C007C1024
:10208800102844007C40404040007C0810087C0038
:102098007C0810207C003844444438007C14141414
:1020A80008003C2464243C007C14141468005C542C
:1020B8005454740004047C0404007C4040407C00B8
:1020C8000C3040300C003C4030403C004428102884
:1020D80044000C1060100C004464544C44007C44D0
:1020E800000000000C1060000000447C00000000AC
:1020F8000001000100004040404040400001000055
:1021080000007C2424247C007C5454546C007C44BF
:10211800444444007C44444438007C5454544400AF
:102128007C14141404007C44445474007C10101073
:102138007C0044447C444400604040447C007C1063
:10214800102844007C40404040007C0810087C0077
:102158007C0810207C003844444438007C14141453
:1021680008003C2464243C007C14141468005C546B
:102178005454740004047C0404007C4040407C00F7
:102188000C3040300C003C4030403C0044281028C3
:1021980044000C1060100C004464544C4400107C43
:1021A800440000006C0000000000447C10000000A7
:0C21B80002010201000000000000000015
:0421C40055010008B9
:0421C80031010008D9
:0421CC00A0008000EF
:0400000508001EC50C
:00000001FF
