:020000040800F2
:1000000000280020B50300080504000805040008C6
:1000100005040008050400080504000800000000AD
:1000200000000000000000000000000005040008BF
:100030000504000800000000050400086102000833
:1000400099030008050400080504000805040008D9
:10005000050400080504000805040008050400085C
:1000600005040008050400080504000899020008BA
:10007000AD020008C1020008D5020008E102000834
:10008000ED020008F9020008050400080504000854
:10009000050400080504000805040008050400081C
:1000A000050400080504000805040008050400080C
:1000B00005040008050400080504000805040008FC
:1000C00005040008050400080504000805040008EC
:1000D00005040008050400080504000805040008DC
:1000E00005040008050400080000000005040008DD
:1000F00005040008050400080504000805040008BC
:1001000005040008050400080504000805040008AB
:10011000050400080504000805040008050400089B
:1001200005030008110300081D030008050400086A
:1001300010B5054C237833B9044B13B10448AFF321
:1001400000800123237010BD00000020000000008B
:100150005004000808B5034B1BB103490348AFF333
:10016000008008BD000000000400002050040008CA
:1001700080B483B000AF0346FB710D4A97F9073096
:100180005B115BB252F82330FA7902F01F020121B1
:1001900001FA02F21046064997F90720521152B2AD
:1001A000034341F8223000BF0C37BD4680BC704786
:1001B00000E100E080B400AF0A4B1B68094A23F05D
:1001C00001031360074B1B68064A43F002031360E8
:1001D000044B1B68034A43F00403136000BFBD4691
:1001E00080BC704710E000E080B483B000AF78605E
:1001F0007B68B3F1807F04D9064B4FF080725A6060
:1002000002E0044A7B68536000BF0C37BD4680BCE7
:10021000704700BF10E000E080B582B000AF7860AA
:1002200039607B684FF4FA5202FB03F31846FFF77C
:10023000DBFF3B68074A1360074B00221A60074B3D
:100240001B68064A43F00103136000BF0837BD4630
:1002500080BD00BF200000201C00002010E000E056
:1002600080B500AF094B1A68094B1B689A4205D24A
:10027000064B1B680133054A136005E0034B00225F
:100280001A60044B1B68984700BF80BD1C0000200B
:10029000240000202000002080B500AF024B1B6826
:1002A000984700BF80BD00BF2800002080B500AF88
:1002B000024B1B68984700BF80BD00BF3400002080
:1002C00080B500AF024B1B68984700BF80BD00BFE0
:1002D0002C00002080B400AF00BFBD4680BC70473A
:1002E00080B400AF00BFBD4680BC704780B400AF93
:1002F00000BFBD4680BC704780B400AF00BFBD46A4
:1003000080BC704780B400AF00BFBD4680BC704762
:1003100080B400AF00BFBD4680BC704780B400AF62
:1003200000BFBD4680BC704780B500AF104B9B69D5
:100330000F4A43F0040393610D4B5B690C4A43F091
:10034000010353610B20FFF713FF0A4B1B68094A97
:1003500043F001031360074B1B68064A23F00403B4
:100360001360FFF727FF0449C820FFF755FFFEE79A
:1003700000100240000801407D03000880B400AF77
:10038000044BDB68034A83F00103D36000BFBD4622
:1003900080BC70470008014080B400AF044BDB68AC
:1003A000034A43F00103D36000BFBD4680BC7047E1
:1003B000000801400D488546AFF300800C480D4908
:1003C0000D4A002302E0D458C4500433C4188C42B0
:1003D000F9D30A4A0A4C002301E013600432A24216
:1003E000FBD300F011F8FFF79FFFFEE70028002085
:1003F0000000002000000020700400080000002021
:1004000044000020FEE7000070B500260C4D0D4CA6
:10041000641BA410A64209D100F01AF800260A4D68
:100420000A4C641BA410A64205D170BD55F8043BCC
:1004300098470136EEE755F8043B98470136F2E756
:100440006804000868040008680400086C040008D8
:10045000F8B500BFF8BC08BC9E467047F8B500BFB1
:08046000F8BC08BC9E46704781
:040468005501000832
:04046C003101000852
:04000005080003B537
:00000001FF
